{
  "_format": "hh-sol-artifact-1",
  "contractName": "LeelaGame",
  "sourceName": "contracts/LeelaGame.sol",
  "abi": [
    {
      "inputs": [],
      "stateMutability": "nonpayable",
      "type": "constructor"
    },
    {
      "anonymous": false,
      "inputs": [
        {
          "indexed": true,
          "internalType": "uint256",
          "name": "commentId",
          "type": "uint256"
        },
        {
          "indexed": true,
          "internalType": "uint256",
          "name": "reportId",
          "type": "uint256"
        },
        {
          "indexed": true,
          "internalType": "address",
          "name": "actor",
          "type": "address"
        },
        {
          "indexed": false,
          "internalType": "string",
          "name": "content",
          "type": "string"
        },
        {
          "indexed": false,
          "internalType": "uint256",
          "name": "timestamp",
          "type": "uint256"
        },
        {
          "indexed": false,
          "internalType": "enum LeelaGame.ActionType",
          "name": "action",
          "type": "uint8"
        }
      ],
      "name": "CommentAction",
      "type": "event"
    },
    {
      "anonymous": false,
      "inputs": [
        {
          "indexed": true,
          "internalType": "address",
          "name": "roller",
          "type": "address"
        },
        {
          "indexed": true,
          "internalType": "uint8",
          "name": "rolled",
          "type": "uint8"
        },
        {
          "indexed": true,
          "internalType": "uint256",
          "name": "currentPlan",
          "type": "uint256"
        }
      ],
      "name": "DiceRolled",
      "type": "event"
    },
    {
      "anonymous": false,
      "inputs": [
        {
          "indexed": true,
          "internalType": "uint256",
          "name": "reportId",
          "type": "uint256"
        },
        {
          "indexed": true,
          "internalType": "address",
          "name": "actor",
          "type": "address"
        },
        {
          "indexed": false,
          "internalType": "string",
          "name": "content",
          "type": "string"
        },
        {
          "indexed": false,
          "internalType": "uint256",
          "name": "plan",
          "type": "uint256"
        },
        {
          "indexed": false,
          "internalType": "uint256",
          "name": "timestamp",
          "type": "uint256"
        },
        {
          "indexed": false,
          "internalType": "enum LeelaGame.ActionType",
          "name": "action",
          "type": "uint8"
        }
      ],
      "name": "ReportAction",
      "type": "event"
    },
    {
      "inputs": [
        {
          "internalType": "uint256",
          "name": "reportId",
          "type": "uint256"
        },
        {
          "internalType": "string",
          "name": "content",
          "type": "string"
        }
      ],
      "name": "addComment",
      "outputs": [],
      "stateMutability": "nonpayable",
      "type": "function"
    },
    {
      "inputs": [
        {
          "internalType": "address",
          "name": "playerAddress",
          "type": "address"
        }
      ],
      "name": "checkGameStatus",
      "outputs": [
        {
          "internalType": "bool",
          "name": "isStart",
          "type": "bool"
        },
        {
          "internalType": "bool",
          "name": "isFinished",
          "type": "bool"
        }
      ],
      "stateMutability": "view",
      "type": "function"
    },
    {
      "inputs": [
        {
          "internalType": "uint256",
          "name": "",
          "type": "uint256"
        }
      ],
      "name": "comments",
      "outputs": [
        {
          "internalType": "uint256",
          "name": "commentId",
          "type": "uint256"
        },
        {
          "internalType": "uint256",
          "name": "reportId",
          "type": "uint256"
        },
        {
          "internalType": "address",
          "name": "commenter",
          "type": "address"
        },
        {
          "internalType": "string",
          "name": "content",
          "type": "string"
        },
        {
          "internalType": "uint256",
          "name": "timestamp",
          "type": "uint256"
        }
      ],
      "stateMutability": "view",
      "type": "function"
    },
    {
      "inputs": [
        {
          "internalType": "string",
          "name": "content",
          "type": "string"
        }
      ],
      "name": "createReport",
      "outputs": [],
      "stateMutability": "nonpayable",
      "type": "function"
    },
    {
      "inputs": [
        {
          "internalType": "uint256",
          "name": "commentId",
          "type": "uint256"
        }
      ],
      "name": "deleteComment",
      "outputs": [],
      "stateMutability": "nonpayable",
      "type": "function"
    },
    {
      "inputs": [
        {
          "internalType": "uint256",
          "name": "reportId",
          "type": "uint256"
        }
      ],
      "name": "deleteReport",
      "outputs": [],
      "stateMutability": "nonpayable",
      "type": "function"
    },
    {
      "inputs": [
        {
          "internalType": "uint256",
          "name": "reportId",
          "type": "uint256"
        }
      ],
      "name": "getAllCommentsForReport",
      "outputs": [
        {
          "components": [
            {
              "internalType": "uint256",
              "name": "commentId",
              "type": "uint256"
            },
            {
              "internalType": "uint256",
              "name": "reportId",
              "type": "uint256"
            },
            {
              "internalType": "address",
              "name": "commenter",
              "type": "address"
            },
            {
              "internalType": "string",
              "name": "content",
              "type": "string"
            },
            {
              "internalType": "uint256",
              "name": "timestamp",
              "type": "uint256"
            }
          ],
          "internalType": "struct LeelaGame.Comment[]",
          "name": "",
          "type": "tuple[]"
        }
      ],
      "stateMutability": "view",
      "type": "function"
    },
    {
      "inputs": [],
      "name": "getAllReports",
      "outputs": [
        {
          "components": [
            {
              "internalType": "uint256",
              "name": "reportId",
              "type": "uint256"
            },
            {
              "internalType": "address",
              "name": "reporter",
              "type": "address"
            },
            {
              "internalType": "string",
              "name": "content",
              "type": "string"
            },
            {
              "internalType": "uint256",
              "name": "plan",
              "type": "uint256"
            },
            {
              "internalType": "uint256",
              "name": "timestamp",
              "type": "uint256"
            },
            {
              "internalType": "uint256[]",
              "name": "commentIds",
              "type": "uint256[]"
            }
          ],
          "internalType": "struct LeelaGame.Report[]",
          "name": "",
          "type": "tuple[]"
        }
      ],
      "stateMutability": "view",
      "type": "function"
    },
    {
      "inputs": [
        {
          "internalType": "address",
          "name": "player",
          "type": "address"
        }
      ],
      "name": "getPlanHistory",
      "outputs": [
        {
          "internalType": "uint256[]",
          "name": "",
          "type": "uint256[]"
        }
      ],
      "stateMutability": "view",
      "type": "function"
    },
    {
      "inputs": [
        {
          "internalType": "uint256",
          "name": "reportId",
          "type": "uint256"
        }
      ],
      "name": "getReport",
      "outputs": [
        {
          "components": [
            {
              "internalType": "uint256",
              "name": "reportId",
              "type": "uint256"
            },
            {
              "internalType": "address",
              "name": "reporter",
              "type": "address"
            },
            {
              "internalType": "string",
              "name": "content",
              "type": "string"
            },
            {
              "internalType": "uint256",
              "name": "plan",
              "type": "uint256"
            },
            {
              "internalType": "uint256",
              "name": "timestamp",
              "type": "uint256"
            },
            {
              "internalType": "uint256[]",
              "name": "commentIds",
              "type": "uint256[]"
            }
          ],
          "internalType": "struct LeelaGame.Report",
          "name": "",
          "type": "tuple"
        }
      ],
      "stateMutability": "view",
      "type": "function"
    },
    {
      "inputs": [
        {
          "internalType": "address",
          "name": "player",
          "type": "address"
        }
      ],
      "name": "getRollHistory",
      "outputs": [
        {
          "internalType": "uint8[]",
          "name": "",
          "type": "uint8[]"
        }
      ],
      "stateMutability": "view",
      "type": "function"
    },
    {
      "inputs": [
        {
          "internalType": "address",
          "name": "",
          "type": "address"
        },
        {
          "internalType": "uint256",
          "name": "",
          "type": "uint256"
        }
      ],
      "name": "playerPlans",
      "outputs": [
        {
          "internalType": "uint256",
          "name": "",
          "type": "uint256"
        }
      ],
      "stateMutability": "view",
      "type": "function"
    },
    {
      "inputs": [
        {
          "internalType": "address",
          "name": "",
          "type": "address"
        }
      ],
      "name": "playerReportCreated",
      "outputs": [
        {
          "internalType": "bool",
          "name": "",
          "type": "bool"
        }
      ],
      "stateMutability": "view",
      "type": "function"
    },
    {
      "inputs": [
        {
          "internalType": "address",
          "name": "",
          "type": "address"
        },
        {
          "internalType": "uint256",
          "name": "",
          "type": "uint256"
        }
      ],
      "name": "playerRolls",
      "outputs": [
        {
          "internalType": "uint8",
          "name": "",
          "type": "uint8"
        }
      ],
      "stateMutability": "view",
      "type": "function"
    },
    {
      "inputs": [
        {
          "internalType": "address",
          "name": "",
          "type": "address"
        }
      ],
      "name": "players",
      "outputs": [
        {
          "internalType": "uint256",
          "name": "plan",
          "type": "uint256"
        },
        {
          "internalType": "uint256",
          "name": "previousPlan",
          "type": "uint256"
        },
        {
          "internalType": "bool",
          "name": "isStart",
          "type": "bool"
        },
        {
          "internalType": "bool",
          "name": "isFinished",
          "type": "bool"
        },
        {
          "internalType": "uint8",
          "name": "consecutiveSixes",
          "type": "uint8"
        }
      ],
      "stateMutability": "view",
      "type": "function"
    },
    {
      "inputs": [
        {
          "internalType": "uint256",
          "name": "",
          "type": "uint256"
        }
      ],
      "name": "reports",
      "outputs": [
        {
          "internalType": "uint256",
          "name": "reportId",
          "type": "uint256"
        },
        {
          "internalType": "address",
          "name": "reporter",
          "type": "address"
        },
        {
          "internalType": "string",
          "name": "content",
          "type": "string"
        },
        {
          "internalType": "uint256",
          "name": "plan",
          "type": "uint256"
        },
        {
          "internalType": "uint256",
          "name": "timestamp",
          "type": "uint256"
        }
      ],
      "stateMutability": "view",
      "type": "function"
    },
    {
      "inputs": [
        {
          "internalType": "uint8",
          "name": "rollResult",
          "type": "uint8"
        }
      ],
      "name": "rollDice",
      "outputs": [],
      "stateMutability": "nonpayable",
      "type": "function"
    },
    {
      "inputs": [
        {
          "internalType": "uint256",
          "name": "commentId",
          "type": "uint256"
        },
        {
          "internalType": "string",
          "name": "newContent",
          "type": "string"
        }
      ],
      "name": "updateCommentContent",
      "outputs": [],
      "stateMutability": "nonpayable",
      "type": "function"
    },
    {
      "inputs": [
        {
          "internalType": "uint256",
          "name": "reportId",
          "type": "uint256"
        },
        {
          "internalType": "string",
          "name": "newContent",
          "type": "string"
        }
      ],
      "name": "updateReportContent",
      "outputs": [],
      "stateMutability": "nonpayable",
      "type": "function"
    }
  ],
  "bytecode": "0x608060405234801561001057600080fd5b5061001961008d565b604480825260208083019182523360009081526004909152604090819020835181559151600183015582015160029091018054606084015160809094015160ff16620100000262ff0000199415156101000261ff001994151560ff19909316929092179390931617929092161790556100bb565b6040805160a08101825260008082526020820181905291810182905260608101829052608081019190915290565b612240806100ca6000396000f3fe608060405234801561001057600080fd5b50600436106101215760003560e01c80639756a055116100ad578063c942adf711610071578063c942adf7146102a8578063de610228146102cc578063e2eb41ff146102df578063e5f7bb8514610303578063f3d3ddfa1461032357610121565b80639756a05514610214578063aa7e568314610235578063ade94a7614610248578063b2ccbe4514610268578063c2f846271461028857610121565b80634e7f9b19116100f45780634e7f9b191461018a5780635f2defcd146101aa5780637d0b1026146101ca5780638ebb4c15146101dd578063960630491461020157610121565b80631e2160d1146101265780631f290f8f1461013b57806333efe6061461014e57806337e8292014610177575b600080fd5b6101396101343660046119a5565b610338565b005b6101396101493660046119bd565b61043f565b61016161015c3660046119a5565b6104e0565b60405161016e9190611b31565b60405180910390f35b61013961018536600461196a565b6106d6565b61019d6101983660046119a5565b610830565b60405161016e9190612059565b6101bd6101b8366004611941565b6109a1565b60405161016e919061206c565b6101396101d83660046119a5565b6109d2565b6101f06101eb3660046119a5565b610b9c565b60405161016e9594939291906120b3565b61013961020f366004611a02565b610c60565b610227610222366004611920565b610dd3565b60405161016e929190611c96565b6101396102433660046119bd565b610dfe565b61025b610256366004611941565b610f33565b60405161016e919061211a565b61027b610276366004611920565b610f76565b60405161016e9190611c31565b61029b610296366004611920565b610fe2565b60405161016e9190611c8b565b6102bb6102b63660046119a5565b610ff7565b60405161016e959493929190612075565b6101396102da3660046119bd565b6110b9565b6102f26102ed366004611920565b61115b565b60405161016e9594939291906120f2565b610316610311366004611920565b611192565b60405161016e9190611c44565b61032b61121a565b60405161016e9190611bd1565b600054811115801561034a5750600081115b61036f5760405162461bcd60e51b815260040161036690611f12565b60405180910390fd5b600081815260026020526040902060018101546001600160a01b031633146103a95760405162461bcd60e51b815260040161036690611db7565b60408051808201909152601d8082527f54686973207265706f727420686173206265656e2064656c657465642e00000060209092019182526103ef9160028401916116ff565b50336001600160a01b0316827f091a93d0df177529f6163a351d8419864f2ab8cf3a9818acc6031be0853be2cf836003015442600260405161043393929190611f8f565b60405180910390a35050565b600082815260036020526040902060028101546001600160a01b031633146104795760405162461bcd60e51b815260040161036690611ec8565b815161048e90600383019060208501906116ff565b50336001600160a01b03168160010154847f5bfb3526b4ea79e3e890b4d2f6cb6dcb174473d6410442026e822947555c3bd0854260016040516104d393929190611ca8565b60405180910390a4505050565b60008181526002602052604081206005810180546060939067ffffffffffffffff81111561051e57634e487b7160e01b600052604160045260246000fd5b60405190808252806020026020018201604052801561055757816020015b610544611783565b81526020019060019003908161053c5790505b50905060005b82548110156106cb576003600084838154811061058a57634e487b7160e01b600052603260045260246000fd5b906000526020600020015481526020019081526020016000206040518060a001604052908160008201548152602001600182015481526020016002820160009054906101000a90046001600160a01b03166001600160a01b03166001600160a01b0316815260200160038201805461060190612188565b80601f016020809104026020016040519081016040528092919081815260200182805461062d90612188565b801561067a5780601f1061064f5761010080835404028352916020019161067a565b820191906000526020600020905b81548152906001019060200180831161065d57829003601f168201915b505050505081526020016004820154815250508282815181106106ad57634e487b7160e01b600052603260045260246000fd5b602002602001018190525080806106c3906121c3565b91505061055d565b50925050505b919050565b336000908152600460205260409020805460029091015460ff1661070c5760405162461bcd60e51b815260040161036690611e49565b60008054908061071b836121c3565b90915550506040805160c08101825260008054808352336020808501918252848601888152606086018890524260808701528651858152808301885260a08701529284526002808252959093208451815590516001820180546001600160a01b0319166001600160a01b0390921691909117905590518051939491936107a9939285019291909101906116ff565b50606082015160038201556080820151600482015560a082015180516107d99160058401916020909101906117bb565b505033600081815260076020526040808220805460ff1916600117905581549051929350917f091a93d0df177529f6163a351d8419864f2ab8cf3a9818acc6031be0853be2cf916104339187918791429190611cd0565b6108386117f5565b600054821115801561084a5750600082115b6108665760405162461bcd60e51b815260040161036690611f12565b600082815260026020818152604092839020835160c0810185528154815260018201546001600160a01b031692810192909252918201805491938401916108ac90612188565b80601f01602080910402602001604051908101604052809291908181526020018280546108d890612188565b80156109255780601f106108fa57610100808354040283529160200191610925565b820191906000526020600020905b81548152906001019060200180831161090857829003601f168201915b5050505050815260200160038201548152602001600482015481526020016005820180548060200260200160405190810160405280929190818152602001828054801561099157602002820191906000526020600020905b81548152602001906001019080831161097d575b5050505050815250509050919050565b600660205281600052604060002081815481106109bd57600080fd5b90600052602060002001600091509150505481565b600081815260036020526040902060028101546001600160a01b03163314610a0c5760405162461bcd60e51b815260040161036690611dff565b60008281526003602081905260408220828155600181018390556002810180546001600160a01b03191690559190610a4690830182611834565b50600060049190910181905560018201548152600260205260408120600501905b8154811015610b545783828281548110610a9157634e487b7160e01b600052603260045260246000fd5b90600052602060002001541415610b425781548290610ab290600190612171565b81548110610ad057634e487b7160e01b600052603260045260246000fd5b9060005260206000200154828281548110610afb57634e487b7160e01b600052603260045260246000fd5b906000526020600020018190555081805480610b2757634e487b7160e01b600052603160045260246000fd5b60019003818190600052602060002001600090559055610b54565b80610b4c816121c3565b915050610a67565b50336001600160a01b03168260010154847f5bfb3526b4ea79e3e890b4d2f6cb6dcb174473d6410442026e822947555c3bd0856003014260026040516104d393929190611cfe565b60036020819052600091825260409091208054600182015460028301549383018054929491936001600160a01b0390921692610bd790612188565b80601f0160208091040260200160405190810160405280929190818152602001828054610c0390612188565b8015610c505780601f10610c2557610100808354040283529160200191610c50565b820191906000526020600020905b815481529060010190602001808311610c3357829003601f168201915b5050505050908060040154905085565b60018160ff1610158015610c785750600660ff821611155b610c945760405162461bcd60e51b815260040161036690611e9a565b3360008181526005602090815260408083208054600181018255908452828420838204018054601f9092166101000a60ff818102199093168884169190910217905593835260049091529020600281015490911615610d2757600080548152600260205260409020600101546001600160a01b03163314610d275760405162461bcd60e51b815260040161036690611f3e565b600281015460ff16158015610d3f57508160ff166006145b15610db857600680825560028201805462010000600160ff19909216821762ff000019161790915533600081815260208481526040808320805495860181558352908220909301849055915160ff8616927fa80d0879cc93cb9b45f20dabe406fe65fc150bf0304985f2e8c37521bf6a7ef691a4610dcf565b600281015460ff1615610dcf57610dcf8233611412565b5050565b6001600160a01b031660009081526004602052604090206002015460ff808216926101009092041690565b600082815260026020526040902060018101546001600160a01b0316610e365760405162461bcd60e51b815260040161036690611fe1565b60018054906000610e46836121c3565b90915550506040805160a081018252600180548083526020808401888152338587019081526060860189815242608088015260009485526003808552979094208651815591519482019490945592516002840180546001600160a01b0319166001600160a01b039092169190911790559051805193949293610ecf9385019291909101906116ff565b50608091909101516004909101556001805460058301805480840182556000918252602082200191909155905460405133928692917f5bfb3526b4ea79e3e890b4d2f6cb6dcb174473d6410442026e822947555c3bd0916104d39188914291611ca8565b60056020528160005260406000208181548110610f4f57600080fd5b9060005260206000209060209182820401919006915091509054906101000a900460ff1681565b6001600160a01b038116600090815260066020908152604091829020805483518184028101840190945280845260609392830182828015610fd657602002820191906000526020600020905b815481526020019060010190808311610fc2575b50505050509050919050565b60076020526000908152604090205460ff1681565b600260208190526000918252604090912080546001820154928201805491936001600160a01b0316929161102a90612188565b80601f016020809104026020016040519081016040528092919081815260200182805461105690612188565b80156110a35780601f10611078576101008083540402835291602001916110a3565b820191906000526020600020905b81548152906001019060200180831161108657829003601f168201915b5050505050908060030154908060040154905085565b600082815260026020526040902060018101546001600160a01b031633146110f35760405162461bcd60e51b815260040161036690612011565b815161110890600283019060208501906116ff565b50336001600160a01b0316837f091a93d0df177529f6163a351d8419864f2ab8cf3a9818acc6031be0853be2cf84846003015442600160405161114e9493929190611cd0565b60405180910390a3505050565b60046020526000908152604090208054600182015460029092015490919060ff808216916101008104821691620100009091041685565b6001600160a01b038116600090815260056020908152604091829020805483518184028101840190945280845260609392830182828015610fd657602002820191906000526020600020906000905b825461010083900a900460ff168152602060019283018181049485019490930390920291018084116111e1575094979650505050505050565b60606000805467ffffffffffffffff81111561124657634e487b7160e01b600052604160045260246000fd5b60405190808252806020026020018201604052801561127f57816020015b61126c6117f5565b8152602001906001900390816112645790505b50905060015b600054811161140c57600081815260026020818152604092839020835160c0810185528154815260018201546001600160a01b031692810192909252918201805491938401916112d490612188565b80601f016020809104026020016040519081016040528092919081815260200182805461130090612188565b801561134d5780601f106113225761010080835404028352916020019161134d565b820191906000526020600020905b81548152906001019060200180831161133057829003601f168201915b505050505081526020016003820154815260200160048201548152602001600582018054806020026020016040519081016040528092919081815260200182805480156113b957602002820191906000526020600020905b8154815260200190600101908083116113a5575b505050505081525050826001836113d09190612171565b815181106113ee57634e487b7160e01b600052603260045260246000fd5b60200260200101819052508080611404906121c3565b915050611285565b50905090565b6001600160a01b038116600090815260046020526040902060ff8316600614156114a857600281810180546001929061145590849062010000900460ff1661214c565b92506101000a81548160ff021916908360ff1602179055508060020160029054906101000a900460ff1660ff16600314156114a35760018101548155600201805462ff000019169055610dcf565b6114b7565b60028101805462ff0000191690555b6114c183836114c6565b505050565b6001600160a01b03811660009081526004602052604081208054600182018190559091906114f89060ff861690612134565b90506048811115611507575080545b80600c141561151857506008611668565b806010141561152957506004611668565b806018141561153a57506007611668565b80601d141561154b57506006611668565b80602c141561155c57506009611668565b806034141561156d57506023611668565b806037141561157e57506003611668565b80603d141561158f5750600d611668565b80603f14156115a057506002611668565b80604814156115b157506033611668565b80600a14156115c257506017611668565b80601114156115d357506045611668565b80601414156115e457506020611668565b80601614156115f55750603c611668565b80601b141561160657506029611668565b80601c141561161757506032611668565b806025141561162857506042611668565b80602d141561163957506043611668565b80602e141561164a5750603e611668565b806036141561165b57506044611668565b6048811115611668575080545b8082556001600160a01b03831660009081526006602090815260408220805460018101825590835291200181905560448114156116be576002820180546001840183905560ff1961ff0019909116610100171690555b808460ff16846001600160a01b03167fa80d0879cc93cb9b45f20dabe406fe65fc150bf0304985f2e8c37521bf6a7ef660405160405180910390a450505050565b82805461170b90612188565b90600052602060002090601f01602090048101928261172d5760008555611773565b82601f1061174657805160ff1916838001178555611773565b82800160010185558215611773579182015b82811115611773578251825591602001919060010190611758565b5061177f929150611873565b5090565b6040518060a00160405280600081526020016000815260200160006001600160a01b0316815260200160608152602001600081525090565b8280548282559060005260206000209081019282156117735791602002820182811115611773578251825591602001919060010190611758565b6040518060c001604052806000815260200160006001600160a01b03168152602001606081526020016000815260200160008152602001606081525090565b50805461184090612188565b6000825580601f106118525750611870565b601f0160209004906000526020600020908101906118709190611873565b50565b5b8082111561177f5760008155600101611874565b80356001600160a01b03811681146106d157600080fd5b600082601f8301126118af578081fd5b813567ffffffffffffffff808211156118ca576118ca6121f4565b604051601f8301601f1916810160200182811182821017156118ee576118ee6121f4565b604052828152848301602001861015611905578384fd5b82602086016020830137918201602001929092529392505050565b600060208284031215611931578081fd5b61193a82611888565b9392505050565b60008060408385031215611953578081fd5b61195c83611888565b946020939093013593505050565b60006020828403121561197b578081fd5b813567ffffffffffffffff811115611991578182fd5b61199d8482850161189f565b949350505050565b6000602082840312156119b6578081fd5b5035919050565b600080604083850312156119cf578182fd5b82359150602083013567ffffffffffffffff8111156119ec578182fd5b6119f88582860161189f565b9150509250929050565b600060208284031215611a13578081fd5b813560ff8116811461193a578182fd5b6000815180845260208085019450808401835b83811015611a5257815187529582019590820190600101611a36565b509495945050505050565b60038110611a7b57634e487b7160e01b600052602160045260246000fd5b9052565b60008151808452815b81811015611aa457602081850181015186830182015201611a88565b81811115611ab55782602083870101525b50601f01601f19169290920160200192915050565b60008151835260018060a01b036020830151166020840152604082015160c06040850152611afb60c0850182611a7f565b9050606083015160608501526080830151608085015260a083015184820360a0860152611b288282611a23565b95945050505050565b60208082528251828201819052600091906040908185019080840286018301878501865b83811015611bc357888303603f190185528151805184528781015188850152868101516001600160a01b03168785015260608082015160a08287018190529190611ba183880182611a7f565b6080948501519790940196909652505094870194925090860190600101611b55565b509098975050505050505050565b6000602080830181845280855180835260408601915060408482028701019250838701855b82811015611c2457603f19888603018452611c12858351611aca565b94509285019290850190600101611bf6565b5092979650505050505050565b60006020825261193a6020830184611a23565b6020808252825182820181905260009190848201906040850190845b81811015611c7f57835160ff1683529284019291840191600101611c60565b50909695505050505050565b901515815260200190565b91151582521515602082015260400190565b600060608252611cbb6060830186611a7f565b905083602083015261199d6040830184611a5d565b600060808252611ce36080830187611a7f565b9050846020830152836040830152611b286060830184611a5d565b606081528354600090819060028104600180831680611d1e57607f831692505b6020808410821415611d3e57634e487b7160e01b87526022600452602487fd5b611d4b8460608a0161206c565b828015611d5f5760018114611d7057611d9a565b60ff19871682528282019750611d9a565b611d798d612128565b895b87811015611d9457815484820152908601908401611d7b565b83019850505b5050859650898189015250505050505061199d6040830184611a5d565b60208082526028908201527f4f6e6c7920746865207265706f727465722063616e2064656c65746520746865604082015267103932b837b93a1760c11b606082015260800190565b6020808252602a908201527f4f6e6c792074686520636f6d6d656e7465722063616e2064656c657465207468604082015269329031b7b6b6b2b73a1760b11b606082015260800190565b60208082526031908201527f596f75206d757374207374617274207468652067616d65206265666f726520636040820152703932b0ba34b7339030903932b837b93a1760791b606082015260800190565b60208082526014908201527324b73b30b634b2103937b636103932b9bab63a1760611b604082015260600190565b6020808252602a908201527f4f6e6c792074686520636f6d6d656e7465722063616e20757064617465207468604082015269329031b7b6b6b2b73a1760b11b606082015260800190565b60208082526012908201527124b73b30b634b2103932b837b93a1024a21760711b604082015260600190565b60208082526031908201527f596f75206d757374206372656174652061207265706f7274206265666f7265206040820152703937b63634b733903a3432903234b1b29760791b606082015260800190565b600060808252601d60808301527f54686973207265706f727420686173206265656e2064656c657465642e00000060a083015260c08201905084602083015283604083015261199d6060830184611a5d565b6020808252601690820152752932b837b93a103237b2b9903737ba1032bc34b9ba1760511b604082015260600190565b60208082526028908201527f4f6e6c7920746865207265706f727465722063616e2075706461746520746865604082015267103932b837b93a1760c11b606082015260800190565b60006020825261193a6020830184611aca565b90815260200190565b8581526001600160a01b038516602082015260a06040820181905260009061209f90830186611a7f565b606083019490945250608001529392505050565b600086825285602083015260018060a01b038516604083015260a060608301526120e060a0830185611a7f565b90508260808301529695505050505050565b948552602085019390935290151560408401521515606083015260ff16608082015260a00190565b60ff91909116815260200190565b60009081526020902090565b60008219821115612147576121476121de565b500190565b600060ff821660ff84168060ff03821115612169576121696121de565b019392505050565b600082821015612183576121836121de565b500390565b60028104600182168061219c57607f821691505b602082108114156121bd57634e487b7160e01b600052602260045260246000fd5b50919050565b60006000198214156121d7576121d76121de565b5060010190565b634e487b7160e01b600052601160045260246000fd5b634e487b7160e01b600052604160045260246000fdfea2646970667358221220a3a630bcea11615aa9fa9ccacb0b0afe642243c8a083d6e63bc45a56fcaa187364736f6c63430008000033",
  "linkReferences": {},
  "deployedLinkReferences": {}
}