{
  "_format": "hh-sol-artifact-1",
  "contractName": "LeelaGame",
  "sourceName": "contracts/LeelaGame.sol",
  "abi": [
    {
      "inputs": [],
      "stateMutability": "nonpayable",
      "type": "constructor"
    },
    {
      "anonymous": false,
      "inputs": [
        {
          "indexed": true,
          "internalType": "uint256",
          "name": "commentId",
          "type": "uint256"
        },
        {
          "indexed": true,
          "internalType": "uint256",
          "name": "reportId",
          "type": "uint256"
        },
        {
          "indexed": true,
          "internalType": "address",
          "name": "actor",
          "type": "address"
        },
        {
          "indexed": false,
          "internalType": "string",
          "name": "content",
          "type": "string"
        },
        {
          "indexed": false,
          "internalType": "uint256",
          "name": "timestamp",
          "type": "uint256"
        },
        {
          "indexed": false,
          "internalType": "enum LeelaGame.ActionType",
          "name": "action",
          "type": "uint8"
        }
      ],
      "name": "CommentAction",
      "type": "event"
    },
    {
      "anonymous": false,
      "inputs": [
        {
          "indexed": true,
          "internalType": "address",
          "name": "roller",
          "type": "address"
        },
        {
          "indexed": true,
          "internalType": "uint8",
          "name": "rolled",
          "type": "uint8"
        },
        {
          "indexed": true,
          "internalType": "uint256",
          "name": "currentPlan",
          "type": "uint256"
        }
      ],
      "name": "DiceRolled",
      "type": "event"
    },
    {
      "anonymous": false,
      "inputs": [
        {
          "indexed": true,
          "internalType": "address",
          "name": "player",
          "type": "address"
        },
        {
          "indexed": false,
          "internalType": "string",
          "name": "fullName",
          "type": "string"
        },
        {
          "indexed": false,
          "internalType": "string",
          "name": "avatar",
          "type": "string"
        },
        {
          "indexed": false,
          "internalType": "string",
          "name": "intention",
          "type": "string"
        }
      ],
      "name": "PlayerCreated",
      "type": "event"
    },
    {
      "anonymous": false,
      "inputs": [
        {
          "indexed": true,
          "internalType": "address",
          "name": "player",
          "type": "address"
        },
        {
          "indexed": false,
          "internalType": "string",
          "name": "fullName",
          "type": "string"
        },
        {
          "indexed": false,
          "internalType": "string",
          "name": "avatar",
          "type": "string"
        },
        {
          "indexed": false,
          "internalType": "string",
          "name": "intention",
          "type": "string"
        }
      ],
      "name": "PlayerUpdated",
      "type": "event"
    },
    {
      "anonymous": false,
      "inputs": [
        {
          "indexed": true,
          "internalType": "uint256",
          "name": "reportId",
          "type": "uint256"
        },
        {
          "indexed": true,
          "internalType": "address",
          "name": "actor",
          "type": "address"
        },
        {
          "indexed": false,
          "internalType": "string",
          "name": "content",
          "type": "string"
        },
        {
          "indexed": false,
          "internalType": "uint256",
          "name": "plan",
          "type": "uint256"
        },
        {
          "indexed": false,
          "internalType": "uint256",
          "name": "timestamp",
          "type": "uint256"
        },
        {
          "indexed": false,
          "internalType": "enum LeelaGame.ActionType",
          "name": "action",
          "type": "uint8"
        }
      ],
      "name": "ReportAction",
      "type": "event"
    },
    {
      "anonymous": false,
      "inputs": [
        {
          "indexed": false,
          "internalType": "string",
          "name": "message",
          "type": "string"
        }
      ],
      "name": "RollDiceError",
      "type": "event"
    },
    {
      "inputs": [
        {
          "internalType": "uint256",
          "name": "reportId",
          "type": "uint256"
        },
        {
          "internalType": "string",
          "name": "content",
          "type": "string"
        }
      ],
      "name": "addComment",
      "outputs": [],
      "stateMutability": "nonpayable",
      "type": "function"
    },
    {
      "inputs": [
        {
          "internalType": "address",
          "name": "playerAddress",
          "type": "address"
        }
      ],
      "name": "checkGameStatus",
      "outputs": [
        {
          "internalType": "bool",
          "name": "isStart",
          "type": "bool"
        },
        {
          "internalType": "bool",
          "name": "isFinished",
          "type": "bool"
        }
      ],
      "stateMutability": "view",
      "type": "function"
    },
    {
      "inputs": [
        {
          "internalType": "uint256",
          "name": "",
          "type": "uint256"
        }
      ],
      "name": "comments",
      "outputs": [
        {
          "internalType": "uint256",
          "name": "commentId",
          "type": "uint256"
        },
        {
          "internalType": "uint256",
          "name": "reportId",
          "type": "uint256"
        },
        {
          "internalType": "address",
          "name": "commenter",
          "type": "address"
        },
        {
          "internalType": "string",
          "name": "content",
          "type": "string"
        },
        {
          "internalType": "uint256",
          "name": "timestamp",
          "type": "uint256"
        }
      ],
      "stateMutability": "view",
      "type": "function"
    },
    {
      "inputs": [
        {
          "internalType": "string",
          "name": "_fullName",
          "type": "string"
        },
        {
          "internalType": "string",
          "name": "_avatar",
          "type": "string"
        },
        {
          "internalType": "string",
          "name": "_intention",
          "type": "string"
        }
      ],
      "name": "createPlayer",
      "outputs": [],
      "stateMutability": "nonpayable",
      "type": "function"
    },
    {
      "inputs": [
        {
          "internalType": "string",
          "name": "content",
          "type": "string"
        }
      ],
      "name": "createReport",
      "outputs": [],
      "stateMutability": "nonpayable",
      "type": "function"
    },
    {
      "inputs": [
        {
          "internalType": "uint256",
          "name": "commentId",
          "type": "uint256"
        }
      ],
      "name": "deleteComment",
      "outputs": [],
      "stateMutability": "nonpayable",
      "type": "function"
    },
    {
      "inputs": [
        {
          "internalType": "uint256",
          "name": "reportId",
          "type": "uint256"
        }
      ],
      "name": "deleteReport",
      "outputs": [],
      "stateMutability": "nonpayable",
      "type": "function"
    },
    {
      "inputs": [
        {
          "internalType": "uint256",
          "name": "reportId",
          "type": "uint256"
        }
      ],
      "name": "getAllCommentsForReport",
      "outputs": [
        {
          "components": [
            {
              "internalType": "uint256",
              "name": "commentId",
              "type": "uint256"
            },
            {
              "internalType": "uint256",
              "name": "reportId",
              "type": "uint256"
            },
            {
              "internalType": "address",
              "name": "commenter",
              "type": "address"
            },
            {
              "internalType": "string",
              "name": "content",
              "type": "string"
            },
            {
              "internalType": "uint256",
              "name": "timestamp",
              "type": "uint256"
            }
          ],
          "internalType": "struct LeelaGame.Comment[]",
          "name": "",
          "type": "tuple[]"
        }
      ],
      "stateMutability": "view",
      "type": "function"
    },
    {
      "inputs": [],
      "name": "getAllReports",
      "outputs": [
        {
          "components": [
            {
              "internalType": "uint256",
              "name": "reportId",
              "type": "uint256"
            },
            {
              "internalType": "address",
              "name": "reporter",
              "type": "address"
            },
            {
              "internalType": "string",
              "name": "content",
              "type": "string"
            },
            {
              "internalType": "uint256",
              "name": "plan",
              "type": "uint256"
            },
            {
              "internalType": "uint256",
              "name": "timestamp",
              "type": "uint256"
            },
            {
              "internalType": "uint256[]",
              "name": "commentIds",
              "type": "uint256[]"
            }
          ],
          "internalType": "struct LeelaGame.Report[]",
          "name": "",
          "type": "tuple[]"
        }
      ],
      "stateMutability": "view",
      "type": "function"
    },
    {
      "inputs": [
        {
          "internalType": "address",
          "name": "player",
          "type": "address"
        }
      ],
      "name": "getPlanHistory",
      "outputs": [
        {
          "internalType": "uint256[]",
          "name": "",
          "type": "uint256[]"
        }
      ],
      "stateMutability": "view",
      "type": "function"
    },
    {
      "inputs": [
        {
          "internalType": "address",
          "name": "playerAddress",
          "type": "address"
        }
      ],
      "name": "getPlayer",
      "outputs": [
        {
          "components": [
            {
              "internalType": "string",
              "name": "fullName",
              "type": "string"
            },
            {
              "internalType": "string",
              "name": "avatar",
              "type": "string"
            },
            {
              "internalType": "string",
              "name": "intention",
              "type": "string"
            },
            {
              "internalType": "uint256",
              "name": "plan",
              "type": "uint256"
            },
            {
              "internalType": "uint256",
              "name": "previousPlan",
              "type": "uint256"
            },
            {
              "internalType": "bool",
              "name": "isStart",
              "type": "bool"
            },
            {
              "internalType": "bool",
              "name": "isFinished",
              "type": "bool"
            },
            {
              "internalType": "uint8",
              "name": "consecutiveSixes",
              "type": "uint8"
            },
            {
              "internalType": "uint256",
              "name": "positionBeforeThreeSixes",
              "type": "uint256"
            }
          ],
          "internalType": "struct LeelaGame.Player",
          "name": "",
          "type": "tuple"
        }
      ],
      "stateMutability": "view",
      "type": "function"
    },
    {
      "inputs": [
        {
          "internalType": "uint256",
          "name": "reportId",
          "type": "uint256"
        }
      ],
      "name": "getReport",
      "outputs": [
        {
          "components": [
            {
              "internalType": "uint256",
              "name": "reportId",
              "type": "uint256"
            },
            {
              "internalType": "address",
              "name": "reporter",
              "type": "address"
            },
            {
              "internalType": "string",
              "name": "content",
              "type": "string"
            },
            {
              "internalType": "uint256",
              "name": "plan",
              "type": "uint256"
            },
            {
              "internalType": "uint256",
              "name": "timestamp",
              "type": "uint256"
            },
            {
              "internalType": "uint256[]",
              "name": "commentIds",
              "type": "uint256[]"
            }
          ],
          "internalType": "struct LeelaGame.Report",
          "name": "",
          "type": "tuple"
        }
      ],
      "stateMutability": "view",
      "type": "function"
    },
    {
      "inputs": [
        {
          "internalType": "address",
          "name": "player",
          "type": "address"
        }
      ],
      "name": "getRollHistory",
      "outputs": [
        {
          "internalType": "uint8[]",
          "name": "",
          "type": "uint8[]"
        }
      ],
      "stateMutability": "view",
      "type": "function"
    },
    {
      "inputs": [
        {
          "internalType": "address",
          "name": "",
          "type": "address"
        }
      ],
      "name": "playerCreated",
      "outputs": [
        {
          "internalType": "bool",
          "name": "",
          "type": "bool"
        }
      ],
      "stateMutability": "view",
      "type": "function"
    },
    {
      "inputs": [
        {
          "internalType": "address",
          "name": "",
          "type": "address"
        },
        {
          "internalType": "uint256",
          "name": "",
          "type": "uint256"
        }
      ],
      "name": "playerPlans",
      "outputs": [
        {
          "internalType": "uint256",
          "name": "",
          "type": "uint256"
        }
      ],
      "stateMutability": "view",
      "type": "function"
    },
    {
      "inputs": [
        {
          "internalType": "address",
          "name": "",
          "type": "address"
        }
      ],
      "name": "playerReportCreated",
      "outputs": [
        {
          "internalType": "bool",
          "name": "",
          "type": "bool"
        }
      ],
      "stateMutability": "view",
      "type": "function"
    },
    {
      "inputs": [
        {
          "internalType": "address",
          "name": "",
          "type": "address"
        },
        {
          "internalType": "uint256",
          "name": "",
          "type": "uint256"
        }
      ],
      "name": "playerRolls",
      "outputs": [
        {
          "internalType": "uint8",
          "name": "",
          "type": "uint8"
        }
      ],
      "stateMutability": "view",
      "type": "function"
    },
    {
      "inputs": [
        {
          "internalType": "address",
          "name": "",
          "type": "address"
        }
      ],
      "name": "players",
      "outputs": [
        {
          "internalType": "string",
          "name": "fullName",
          "type": "string"
        },
        {
          "internalType": "string",
          "name": "avatar",
          "type": "string"
        },
        {
          "internalType": "string",
          "name": "intention",
          "type": "string"
        },
        {
          "internalType": "uint256",
          "name": "plan",
          "type": "uint256"
        },
        {
          "internalType": "uint256",
          "name": "previousPlan",
          "type": "uint256"
        },
        {
          "internalType": "bool",
          "name": "isStart",
          "type": "bool"
        },
        {
          "internalType": "bool",
          "name": "isFinished",
          "type": "bool"
        },
        {
          "internalType": "uint8",
          "name": "consecutiveSixes",
          "type": "uint8"
        },
        {
          "internalType": "uint256",
          "name": "positionBeforeThreeSixes",
          "type": "uint256"
        }
      ],
      "stateMutability": "view",
      "type": "function"
    },
    {
      "inputs": [
        {
          "internalType": "uint256",
          "name": "",
          "type": "uint256"
        }
      ],
      "name": "reports",
      "outputs": [
        {
          "internalType": "uint256",
          "name": "reportId",
          "type": "uint256"
        },
        {
          "internalType": "address",
          "name": "reporter",
          "type": "address"
        },
        {
          "internalType": "string",
          "name": "content",
          "type": "string"
        },
        {
          "internalType": "uint256",
          "name": "plan",
          "type": "uint256"
        },
        {
          "internalType": "uint256",
          "name": "timestamp",
          "type": "uint256"
        }
      ],
      "stateMutability": "view",
      "type": "function"
    },
    {
      "inputs": [
        {
          "internalType": "uint8",
          "name": "rollResult",
          "type": "uint8"
        }
      ],
      "name": "rollDice",
      "outputs": [],
      "stateMutability": "nonpayable",
      "type": "function"
    },
    {
      "inputs": [
        {
          "internalType": "uint256",
          "name": "commentId",
          "type": "uint256"
        },
        {
          "internalType": "string",
          "name": "newContent",
          "type": "string"
        }
      ],
      "name": "updateCommentContent",
      "outputs": [],
      "stateMutability": "nonpayable",
      "type": "function"
    },
    {
      "inputs": [
        {
          "internalType": "string",
          "name": "_fullName",
          "type": "string"
        },
        {
          "internalType": "string",
          "name": "_avatar",
          "type": "string"
        },
        {
          "internalType": "string",
          "name": "_intention",
          "type": "string"
        }
      ],
      "name": "updatePlayer",
      "outputs": [],
      "stateMutability": "nonpayable",
      "type": "function"
    },
    {
      "inputs": [
        {
          "internalType": "uint256",
          "name": "reportId",
          "type": "uint256"
        },
        {
          "internalType": "string",
          "name": "newContent",
          "type": "string"
        }
      ],
      "name": "updateReportContent",
      "outputs": [],
      "stateMutability": "nonpayable",
      "type": "function"
    }
  ],
  "bytecode": "0x60806040523480156200001157600080fd5b506200001c620000f7565b6044606082018190526080820152336000908152600460209081526040909120825180518493620000529284929101906200014a565b5060208281015180516200006d92600185019201906200014a565b50604082015180516200008b9160028401916020909101906200014a565b50606082015160038201556080820151600482015560a082015160058201805460c085015160e086015160ff199092169315159390931761ff00191661010093151584021762ff000019166201000060ff9092169190910217905590910151600690910155506200022d565b6040518061012001604052806060815260200160608152602001606081526020016000815260200160008152602001600015158152602001600015158152602001600060ff168152602001600081525090565b8280546200015890620001f0565b90600052602060002090601f0160209004810192826200017c5760008555620001c7565b82601f106200019757805160ff1916838001178555620001c7565b82800160010185558215620001c7579182015b82811115620001c7578251825591602001919060010190620001aa565b50620001d5929150620001d9565b5090565b5b80821115620001d55760008155600101620001da565b6002810460018216806200020557607f821691505b602082108114156200022757634e487b7160e01b600052602260045260246000fd5b50919050565b612d17806200023d6000396000f3fe608060405234801561001057600080fd5b506004361061014d5760003560e01c80639756a055116100c3578063de6102281161007c578063de6102281461032b578063e1ce7a101461033e578063e2eb41ff14610351578063e5f7bb8514610379578063ef73c76814610399578063f3d3ddfa146103ac5761014d565b80639756a05514610273578063aa7e568314610294578063ade94a76146102a7578063b2ccbe45146102c7578063c2f84627146102e7578063c942adf7146103075761014d565b80635c12cd4b116101155780635c12cd4b146101d65780635f2defcd146101f657806367e43b1a146102165780637d0b1026146102295780638ebb4c151461023c57806396063049146102605761014d565b80631e2160d1146101525780631f290f8f1461016757806333efe6061461017a57806337e82920146101a35780634e7f9b19146101b6575b600080fd5b6101656101603660046121f5565b6103c1565b005b61016561017536600461220d565b6104c8565b61018d6101883660046121f5565b610569565b60405161019a919061238e565b60405180910390f35b6101656101b1366004612136565b61075f565b6101c96101c43660046121f5565b6108e5565b60405161019a9190612b58565b6101e96101e43660046120ec565b610a5a565b60405161019a9190612a9b565b61020961020436600461210d565b610cc4565b60405161019a9190612b6b565b610165610224366004612171565b610cf5565b6101656102373660046121f5565b610dc0565b61024f61024a3660046121f5565b610f88565b60405161019a959493929190612bb2565b61016561026e366004612252565b61104b565b6102866102813660046120ec565b6111f1565b60405161019a9291906124f3565b6101656102a236600461220d565b61121c565b6102ba6102b536600461210d565b61134d565b60405161019a9190612bf1565b6102da6102d53660046120ec565b611390565b60405161019a919061248e565b6102fa6102f53660046120ec565b6113fc565b60405161019a91906124e8565b61031a6103153660046121f5565b611411565b60405161019a959493929190612b74565b61016561033936600461220d565b6114d2565b61016561034c366004612171565b611574565b61036461035f3660046120ec565b6116d6565b60405161019a99989796959493929190612548565b61038c6103873660046120ec565b6118bf565b60405161019a91906124a1565b6102fa6103a73660046120ec565b611947565b6103b461195c565b60405161019a919061242e565b60015481111580156103d35750600081115b6103f85760405162461bcd60e51b81526004016103ef90612925565b60405180910390fd5b600081815260086020526040902060018101546001600160a01b031633146104325760405162461bcd60e51b81526004016103ef90612776565b60408051808201909152601d8082527f54686973207265706f727420686173206265656e2064656c657465642e0000006020909201918252610478916002840191611e78565b50336001600160a01b0316827f091a93d0df177529f6163a351d8419864f2ab8cf3a9818acc6031be0853be2cf83600301544260026040516104bc939291906129a2565b60405180910390a35050565b600082815260096020526040902060028101546001600160a01b031633146105025760405162461bcd60e51b81526004016103ef906128ac565b81516105179060038301906020850190611e78565b50336001600160a01b03168160010154847f5bfb3526b4ea79e3e890b4d2f6cb6dcb174473d6410442026e822947555c3bd08542600160405161055c939291906125bc565b60405180910390a4505050565b60008181526008602052604081206005810180546060939067ffffffffffffffff8111156105a757634e487b7160e01b600052604160045260246000fd5b6040519080825280602002602001820160405280156105e057816020015b6105cd611efc565b8152602001906001900390816105c55790505b50905060005b8254811015610754576009600084838154811061061357634e487b7160e01b600052603260045260246000fd5b906000526020600020015481526020019081526020016000206040518060a001604052908160008201548152602001600182015481526020016002820160009054906101000a90046001600160a01b03166001600160a01b03166001600160a01b0316815260200160038201805461068a90612c5f565b80601f01602080910402602001604051908101604052809291908181526020018280546106b690612c5f565b80156107035780601f106106d857610100808354040283529160200191610703565b820191906000526020600020905b8154815290600101906020018083116106e657829003601f168201915b5050505050815260200160048201548152505082828151811061073657634e487b7160e01b600052603260045260246000fd5b6020026020010181905250808061074c90612c9a565b9150506105e6565b50925050505b919050565b336000908152600460205260409020600381015460059091015460ff166107985760405162461bcd60e51b81526004016103ef9061285b565b600180549060006107a883612c9a565b90915550506040805160c08101825260015481523360208201529081018390526060810182905242608082015260a081016000604051908082528060200260200182016040528015610804578160200160208202803683370190505b50905260018054600090815260086020908152604091829020845181558482015193810180546001600160a01b0319166001600160a01b039095169490941790935590830151805161085c9260028501920190611e78565b50606082015160038201556080820151600482015560a0820151805161088c916005840191602090910190611f34565b505033600081815260076020526040808220805460ff19166001908117909155549051929350917f091a93d0df177529f6163a351d8419864f2ab8cf3a9818acc6031be0853be2cf916104bc91879187914291906125e4565b6108ed611f6e565b60015482111580156108ff5750600082115b61091b5760405162461bcd60e51b81526004016103ef90612925565b600082815260086020908152604091829020825160c0810184528154815260018201546001600160a01b031692810192909252600281018054929391929184019161096590612c5f565b80601f016020809104026020016040519081016040528092919081815260200182805461099190612c5f565b80156109de5780601f106109b3576101008083540402835291602001916109de565b820191906000526020600020905b8154815290600101906020018083116109c157829003601f168201915b50505050508152602001600382015481526020016004820154815260200160058201805480602002602001604051908101604052809291908181526020018280548015610a4a57602002820191906000526020600020905b815481526020019060010190808311610a36575b5050505050815250509050919050565b610a62611fad565b6001600160a01b03821660009081526003602052604090205460ff16610a9a5760405162461bcd60e51b81526004016103ef90612808565b6001600160a01b0382166000908152600460205260409081902081516101208101909252805482908290610acd90612c5f565b80601f0160208091040260200160405190810160405280929190818152602001828054610af990612c5f565b8015610b465780601f10610b1b57610100808354040283529160200191610b46565b820191906000526020600020905b815481529060010190602001808311610b2957829003601f168201915b50505050508152602001600182018054610b5f90612c5f565b80601f0160208091040260200160405190810160405280929190818152602001828054610b8b90612c5f565b8015610bd85780601f10610bad57610100808354040283529160200191610bd8565b820191906000526020600020905b815481529060010190602001808311610bbb57829003601f168201915b50505050508152602001600282018054610bf190612c5f565b80601f0160208091040260200160405190810160405280929190818152602001828054610c1d90612c5f565b8015610c6a5780601f10610c3f57610100808354040283529160200191610c6a565b820191906000526020600020905b815481529060010190602001808311610c4d57829003601f168201915b50505091835250506003820154602082015260048201546040820152600582015460ff808216151560608401526101008204811615156080840152620100009091041660a082015260069091015460c09091015292915050565b60066020528160005260406000208181548110610ce057600080fd5b90600052602060002001600091509150505481565b3360009081526003602052604090205460ff16610d245760405162461bcd60e51b81526004016103ef906128f6565b33600090815260046020908152604090912084519091610d48918391870190611e78565b508251610d5e9060018301906020860190611e78565b508151610d749060028301906020850190611e78565b50336001600160a01b03167f032c35505dd3e3cf31cfda9a06a06fdade78f6f34235e2ae0e14ee4a805d2bcf858585604051610db293929190612505565b60405180910390a250505050565b600081815260096020526040902060028101546001600160a01b03163314610dfa5760405162461bcd60e51b81526004016103ef906127be565b6000828152600960205260408120818155600181018290556002810180546001600160a01b031916905590610e326003830182612000565b50600060049190910181905560018201548152600860205260408120600501905b8154811015610f405783828281548110610e7d57634e487b7160e01b600052603260045260246000fd5b90600052602060002001541415610f2e5781548290610e9e90600190612c48565b81548110610ebc57634e487b7160e01b600052603260045260246000fd5b9060005260206000200154828281548110610ee757634e487b7160e01b600052603260045260246000fd5b906000526020600020018190555081805480610f1357634e487b7160e01b600052603160045260246000fd5b60019003818190600052602060002001600090559055610f40565b80610f3881612c9a565b915050610e53565b50336001600160a01b03168260010154847f5bfb3526b4ea79e3e890b4d2f6cb6dcb174473d6410442026e822947555c3bd08560030142600260405161055c93929190612612565b6009602052600090815260409020805460018201546002830154600384018054939492936001600160a01b039092169291610fc290612c5f565b80601f0160208091040260200160405190810160405280929190818152602001828054610fee90612c5f565b801561103b5780601f106110105761010080835404028352916020019161103b565b820191906000526020600020905b81548152906001019060200180831161101e57829003601f168201915b5050505050908060040154905085565b3360009081526003602052604090205460ff1661107a5760405162461bcd60e51b81526004016103ef906126cb565b60018160ff16101580156110925750600660ff821611155b6110ae5760405162461bcd60e51b81526004016103ef90612719565b33600090815260046020908152604080832060058084529184208054600181018255908552938390209284049092018054601f9094166101000a60ff8181021990951686861691909102179055810154909116156111415760018054600090815260086020526040902001546001600160a01b031633146111415760405162461bcd60e51b81526004016103ef90612951565b600581015460ff1615801561115957508160ff166006145b156111d65760066003820181905560058201805462010000600160ff19909216821762ff000019161790915533600081815260208481526040808320805495860181558352908220909301849055915160ff8616927fa80d0879cc93cb9b45f20dabe406fe65fc150bf0304985f2e8c37521bf6a7ef691a46111ed565b600581015460ff16156111ed576111ed8233611b59565b5050565b6001600160a01b031660009081526004602052604090206005015460ff808216926101009092041690565b600082815260086020526040902060018101546001600160a01b03166112545760405162461bcd60e51b81526004016103ef906129f4565b6002805490600061126483612c9a565b90915550506040805160a0810182526002805480835260208084018881523385870190815260608601898152426080880152600094855260098452969093208551815590516001820155915192820180546001600160a01b0319166001600160a01b0390941693909317909255925180519293926112e89260038501920190611e78565b5060809190910151600490910155600280546005830180546001810182556000918252602082200191909155905460405133928692917f5bfb3526b4ea79e3e890b4d2f6cb6dcb174473d6410442026e822947555c3bd09161055c91889142916125bc565b6005602052816000526040600020818154811061136957600080fd5b9060005260206000209060209182820401919006915091509054906101000a900460ff1681565b6001600160a01b0381166000908152600660209081526040918290208054835181840281018401909452808452606093928301828280156113f057602002820191906000526020600020905b8154815260200190600101908083116113dc575b50505050509050919050565b60076020526000908152604090205460ff1681565b60086020526000908152604090208054600182015460028301805492936001600160a01b039092169261144390612c5f565b80601f016020809104026020016040519081016040528092919081815260200182805461146f90612c5f565b80156114bc5780601f10611491576101008083540402835291602001916114bc565b820191906000526020600020905b81548152906001019060200180831161149f57829003601f168201915b5050505050908060030154908060040154905085565b600082815260086020526040902060018101546001600160a01b0316331461150c5760405162461bcd60e51b81526004016103ef90612a24565b81516115219060028301906020850190611e78565b50336001600160a01b0316837f091a93d0df177529f6163a351d8419864f2ab8cf3a9818acc6031be0853be2cf84846003015442600160405161156794939291906125e4565b60405180910390a3505050565b3360009081526003602052604090205460ff16156115a45760405162461bcd60e51b81526004016103ef90612a6c565b6115ac611fad565b8381526020808201849052604080830184905260006060840181905233815260048352208251805184936115e4928492910190611e78565b5060208281015180516115fd9260018501920190611e78565b5060408201518051611619916002840191602090910190611e78565b5060608201516003808301919091556080830151600483015560a083015160058301805460c086015160e087015160ff16620100000262ff00001991151561010090810261ff001996151560ff1995861617969096169590951791909116179091559301516006909201919091553360008181526020929092526040918290208054909316600117909255517f1f04cf09dc09e59995d246fb7ccff8ee6f3c250f3aac6a71100f7a7ee2f760a690610db290879087908790612505565b6004602052600090815260409020805481906116f190612c5f565b80601f016020809104026020016040519081016040528092919081815260200182805461171d90612c5f565b801561176a5780601f1061173f5761010080835404028352916020019161176a565b820191906000526020600020905b81548152906001019060200180831161174d57829003601f168201915b50505050509080600101805461177f90612c5f565b80601f01602080910402602001604051908101604052809291908181526020018280546117ab90612c5f565b80156117f85780601f106117cd576101008083540402835291602001916117f8565b820191906000526020600020905b8154815290600101906020018083116117db57829003601f168201915b50505050509080600201805461180d90612c5f565b80601f016020809104026020016040519081016040528092919081815260200182805461183990612c5f565b80156118865780601f1061185b57610100808354040283529160200191611886565b820191906000526020600020905b81548152906001019060200180831161186957829003601f168201915b5050506003840154600485015460058601546006909601549495919490935060ff80831693506101008304811692620100009004169089565b6001600160a01b0381166000908152600560209081526040918290208054835181840281018401909452808452606093928301828280156113f057602002820191906000526020600020906000905b825461010083900a900460ff1681526020600192830181810494850194909303909202910180841161190e575094979650505050505050565b60036020526000908152604090205460ff1681565b6060600060015467ffffffffffffffff81111561198957634e487b7160e01b600052604160045260246000fd5b6040519080825280602002602001820160405280156119c257816020015b6119af611f6e565b8152602001906001900390816119a75790505b50905060015b6001548111611b5357600081815260086020908152604091829020825160c0810184528154815260018201546001600160a01b0316928101929092526002810180549293919291840191611a1b90612c5f565b80601f0160208091040260200160405190810160405280929190818152602001828054611a4790612c5f565b8015611a945780601f10611a6957610100808354040283529160200191611a94565b820191906000526020600020905b815481529060010190602001808311611a7757829003601f168201915b50505050508152602001600382015481526020016004820154815260200160058201805480602002602001604051908101604052809291908181526020018280548015611b0057602002820191906000526020600020905b815481526020019060010190808311611aec575b50505050508152505082600183611b179190612c48565b81518110611b3557634e487b7160e01b600052603260045260246000fd5b60200260200101819052508080611b4b90612c9a565b9150506119c8565b50905090565b6001600160a01b03811660009081526004602090815260408083203384526007909252909120805460ff1916905560ff831660061415611c14576003810154600682015560058101805460019190600290611bbe90849062010000900460ff16612c23565b92506101000a81548160ff021916908360ff1602179055508060050160029054906101000a900460ff1660ff1660031415611c0f5760068101546003820155600501805462ff0000191690556111ed565b611c23565b60058101805462ff0000191690555b611c2d8383611c32565b505050565b6001600160a01b0381166000908152600460208190526040822060038101549181018290559190611c679060ff861690612c0b565b90506048811115611c79575060038101545b80600c1415611c8a57506008611ddd565b8060101415611c9b57506004611ddd565b8060181415611cac57506007611ddd565b80601d1415611cbd57506006611ddd565b80602c1415611cce57506009611ddd565b8060341415611cdf57506023611ddd565b8060371415611cf057506003611ddd565b80603d1415611d015750600d611ddd565b80603f1415611d1257506002611ddd565b8060481415611d2357506033611ddd565b80600a1415611d3457506017611ddd565b8060111415611d4557506045611ddd565b8060141415611d5657506020611ddd565b8060161415611d675750603c611ddd565b80601b1415611d7857506029611ddd565b80601c1415611d8957506032611ddd565b8060251415611d9a57506042611ddd565b80602d1415611dab57506043611ddd565b80602e1415611dbc5750603e611ddd565b8060361415611dcd57506044611ddd565b6048811115611ddd575060038101545b600382018190556001600160a01b0383166000908152600660209081526040822080546001810182559083529120018190556044811415611e37576005820180546004840183905560ff1961ff0019909116610100171690555b808460ff16846001600160a01b03167fa80d0879cc93cb9b45f20dabe406fe65fc150bf0304985f2e8c37521bf6a7ef660405160405180910390a450505050565b828054611e8490612c5f565b90600052602060002090601f016020900481019282611ea65760008555611eec565b82601f10611ebf57805160ff1916838001178555611eec565b82800160010185558215611eec579182015b82811115611eec578251825591602001919060010190611ed1565b50611ef892915061203f565b5090565b6040518060a00160405280600081526020016000815260200160006001600160a01b0316815260200160608152602001600081525090565b828054828255906000526020600020908101928215611eec5791602002820182811115611eec578251825591602001919060010190611ed1565b6040518060c001604052806000815260200160006001600160a01b03168152602001606081526020016000815260200160008152602001606081525090565b6040518061012001604052806060815260200160608152602001606081526020016000815260200160008152602001600015158152602001600015158152602001600060ff168152602001600081525090565b50805461200c90612c5f565b6000825580601f1061201e575061203c565b601f01602090049060005260206000209081019061203c919061203f565b50565b5b80821115611ef85760008155600101612040565b80356001600160a01b038116811461075a57600080fd5b600082601f83011261207b578081fd5b813567ffffffffffffffff8082111561209657612096612ccb565b604051601f8301601f1916810160200182811182821017156120ba576120ba612ccb565b6040528281528483016020018610156120d1578384fd5b82602086016020830137918201602001929092529392505050565b6000602082840312156120fd578081fd5b61210682612054565b9392505050565b6000806040838503121561211f578081fd5b61212883612054565b946020939093013593505050565b600060208284031215612147578081fd5b813567ffffffffffffffff81111561215d578182fd5b6121698482850161206b565b949350505050565b600080600060608486031215612185578081fd5b833567ffffffffffffffff8082111561219c578283fd5b6121a88783880161206b565b945060208601359150808211156121bd578283fd5b6121c98783880161206b565b935060408601359150808211156121de578283fd5b506121eb8682870161206b565b9150509250925092565b600060208284031215612206578081fd5b5035919050565b6000806040838503121561221f578182fd5b82359150602083013567ffffffffffffffff81111561223c578182fd5b6122488582860161206b565b9150509250929050565b600060208284031215612263578081fd5b813560ff81168114612106578182fd5b6000815180845260208085019450808401835b838110156122a257815187529582019590820190600101612286565b509495945050505050565b15159052565b600381106122d157634e487b7160e01b600052602160045260246000fd5b9052565b60008151808452815b818110156122fa576020818501810151868301820152016122de565b8181111561230b5782602083870101525b50601f01601f19169290920160200192915050565b60008151835260018060a01b036020830151166020840152604082015160c0604085015261235160c08501826122d5565b9050606083015160608501526080830151608085015260a083015184820360a086015261237e8282612273565b95945050505050565b60ff169052565b60208082528251828201819052600091906040908185019080840286018301878501865b8381101561242057888303603f190185528151805184528781015188850152868101516001600160a01b03168785015260608082015160a082870181905291906123fe838801826122d5565b60809485015197909401969096525050948701949250908601906001016123b2565b509098975050505050505050565b6000602080830181845280855180835260408601915060408482028701019250838701855b8281101561248157603f1988860301845261246f858351612320565b94509285019290850190600101612453565b5092979650505050505050565b6000602082526121066020830184612273565b6020808252825182820181905260009190848201906040850190845b818110156124dc57835160ff16835292840192918401916001016124bd565b50909695505050505050565b901515815260200190565b91151582521515602082015260400190565b60006060825261251860608301866122d5565b828103602084015261252a81866122d5565b9050828103604084015261253e81856122d5565b9695505050505050565b600061012080835261255c8184018d6122d5565b90508281036020840152612570818c6122d5565b90508281036040840152612584818b6122d5565b60608401999099525050608081019590955292151560a085015290151560c084015260ff1660e0830152610100909101529392505050565b6000606082526125cf60608301866122d5565b905083602083015261216960408301846122b3565b6000608082526125f760808301876122d5565b905084602083015283604083015261237e60608301846122b3565b60608152835460009081906002810460018083168061263257607f831692505b602080841082141561265257634e487b7160e01b87526022600452602487fd5b61265f8460608a01612b6b565b8280156126735760018114612684576126ae565b60ff198716825282820197506126ae565b61268d8d612bff565b895b878110156126a85781548482015290860190840161268f565b83019850505b5050859650898189015250505050505061216960408301846122b3565b6020808252602e908201527f506c61796572206d7573742062652063726561746564206265666f726520726f60408201526d6c6c696e6720746865206469636560901b606082015260800190565b6020808252603e908201527f496e76616c696420726f6c6c20726573756c743a20726f6c6c526573756c742060408201527f3e3d203120262620726f6c6c526573756c74203c3d204d41585f524f4c4c0000606082015260800190565b60208082526028908201527f4f6e6c7920746865207265706f727465722063616e2064656c65746520746865604082015267103932b837b93a1760c11b606082015260800190565b6020808252602a908201527f4f6e6c792074686520636f6d6d656e7465722063616e2064656c657465207468604082015269329031b7b6b6b2b73a1760b11b606082015260800190565b60208082526033908201527f506c61796572206d7573742062652063726561746564206265666f726520616360408201527263657373696e6720706c61796572206461746160681b606082015260800190565b60208082526031908201527f596f75206d757374207374617274207468652067616d65206265666f726520636040820152703932b0ba34b7339030903932b837b93a1760791b606082015260800190565b6020808252602a908201527f4f6e6c792074686520636f6d6d656e7465722063616e20757064617465207468604082015269329031b7b6b6b2b73a1760b11b606082015260800190565b602080825260159082015274141b185e595c88191bd95cc81b9bdd08195e1a5cdd605a1b604082015260600190565b60208082526012908201527124b73b30b634b2103932b837b93a1024a21760711b604082015260600190565b60208082526031908201527f596f75206d757374206372656174652061207265706f7274206265666f7265206040820152703937b63634b733903a3432903234b1b29760791b606082015260800190565b600060808252601d60808301527f54686973207265706f727420686173206265656e2064656c657465642e00000060a083015260c08201905084602083015283604083015261216960608301846122b3565b6020808252601690820152752932b837b93a103237b2b9903737ba1032bc34b9ba1760511b604082015260600190565b60208082526028908201527f4f6e6c7920746865207265706f727465722063616e2075706461746520746865604082015267103932b837b93a1760c11b606082015260800190565b602080825260159082015274506c6179657220616c72656164792065786973747360581b604082015260600190565b6000602082528251610120806020850152612aba6101408501836122d5565b91506020850151601f1980868503016040870152612ad884836122d5565b9350604087015191508086850301606087015250612af683826122d5565b92505060608501516080850152608085015160a085015260a0850151612b1f60c08601826122ad565b5060c0850151612b3260e08601826122ad565b5060e0850151610100612b4781870183612387565b959095015193019290925250919050565b6000602082526121066020830184612320565b90815260200190565b8581526001600160a01b038516602082015260a060408201819052600090612b9e908301866122d5565b606083019490945250608001529392505050565b600086825285602083015260018060a01b038516604083015260a06060830152612bdf60a08301856122d5565b90508260808301529695505050505050565b60ff91909116815260200190565b60009081526020902090565b60008219821115612c1e57612c1e612cb5565b500190565b600060ff821660ff84168060ff03821115612c4057612c40612cb5565b019392505050565b600082821015612c5a57612c5a612cb5565b500390565b600281046001821680612c7357607f821691505b60208210811415612c9457634e487b7160e01b600052602260045260246000fd5b50919050565b6000600019821415612cae57612cae612cb5565b5060010190565b634e487b7160e01b600052601160045260246000fd5b634e487b7160e01b600052604160045260246000fdfea26469706673582212200d5574ffcc41f232b95e311a8f3e91b288d766d2fe27cef96eb21abefe8a722064736f6c63430008000033",
  "linkReferences": {},
  "deployedLinkReferences": {}
}