{
  "_format": "hh-sol-artifact-1",
  "contractName": "LeelaGame",
  "sourceName": "contracts/LeelaGame.sol",
  "abi": [
    {
      "inputs": [],
      "stateMutability": "nonpayable",
      "type": "constructor"
    },
    {
      "anonymous": false,
      "inputs": [
        {
          "indexed": true,
          "internalType": "uint256",
          "name": "commentId",
          "type": "uint256"
        },
        {
          "indexed": true,
          "internalType": "uint256",
          "name": "reportId",
          "type": "uint256"
        },
        {
          "indexed": true,
          "internalType": "address",
          "name": "actor",
          "type": "address"
        },
        {
          "indexed": false,
          "internalType": "string",
          "name": "content",
          "type": "string"
        },
        {
          "indexed": false,
          "internalType": "uint256",
          "name": "timestamp",
          "type": "uint256"
        },
        {
          "indexed": false,
          "internalType": "enum LeelaGame.ActionType",
          "name": "action",
          "type": "uint8"
        }
      ],
      "name": "CommentAction",
      "type": "event"
    },
    {
      "anonymous": false,
      "inputs": [
        {
          "indexed": true,
          "internalType": "address",
          "name": "roller",
          "type": "address"
        },
        {
          "indexed": true,
          "internalType": "uint8",
          "name": "rolled",
          "type": "uint8"
        },
        {
          "indexed": true,
          "internalType": "uint256",
          "name": "currentPlan",
          "type": "uint256"
        }
      ],
      "name": "DiceRolled",
      "type": "event"
    },
    {
      "anonymous": false,
      "inputs": [
        {
          "indexed": true,
          "internalType": "address",
          "name": "player",
          "type": "address"
        },
        {
          "indexed": false,
          "internalType": "string",
          "name": "fullName",
          "type": "string"
        },
        {
          "indexed": false,
          "internalType": "string",
          "name": "avatar",
          "type": "string"
        },
        {
          "indexed": false,
          "internalType": "string",
          "name": "intention",
          "type": "string"
        }
      ],
      "name": "PlayerCreated",
      "type": "event"
    },
    {
      "anonymous": false,
      "inputs": [
        {
          "indexed": true,
          "internalType": "uint256",
          "name": "reportId",
          "type": "uint256"
        },
        {
          "indexed": true,
          "internalType": "address",
          "name": "actor",
          "type": "address"
        },
        {
          "indexed": false,
          "internalType": "string",
          "name": "content",
          "type": "string"
        },
        {
          "indexed": false,
          "internalType": "uint256",
          "name": "plan",
          "type": "uint256"
        },
        {
          "indexed": false,
          "internalType": "uint256",
          "name": "timestamp",
          "type": "uint256"
        },
        {
          "indexed": false,
          "internalType": "enum LeelaGame.ActionType",
          "name": "action",
          "type": "uint8"
        }
      ],
      "name": "ReportAction",
      "type": "event"
    },
    {
      "anonymous": false,
      "inputs": [
        {
          "indexed": false,
          "internalType": "string",
          "name": "message",
          "type": "string"
        }
      ],
      "name": "RollDiceError",
      "type": "event"
    },
    {
      "inputs": [
        {
          "internalType": "uint256",
          "name": "reportId",
          "type": "uint256"
        },
        {
          "internalType": "string",
          "name": "content",
          "type": "string"
        }
      ],
      "name": "addComment",
      "outputs": [],
      "stateMutability": "nonpayable",
      "type": "function"
    },
    {
      "inputs": [
        {
          "internalType": "address",
          "name": "playerAddress",
          "type": "address"
        }
      ],
      "name": "checkGameStatus",
      "outputs": [
        {
          "internalType": "bool",
          "name": "isStart",
          "type": "bool"
        },
        {
          "internalType": "bool",
          "name": "isFinished",
          "type": "bool"
        }
      ],
      "stateMutability": "view",
      "type": "function"
    },
    {
      "inputs": [
        {
          "internalType": "uint256",
          "name": "",
          "type": "uint256"
        }
      ],
      "name": "comments",
      "outputs": [
        {
          "internalType": "uint256",
          "name": "commentId",
          "type": "uint256"
        },
        {
          "internalType": "uint256",
          "name": "reportId",
          "type": "uint256"
        },
        {
          "internalType": "address",
          "name": "commenter",
          "type": "address"
        },
        {
          "internalType": "string",
          "name": "content",
          "type": "string"
        },
        {
          "internalType": "uint256",
          "name": "timestamp",
          "type": "uint256"
        }
      ],
      "stateMutability": "view",
      "type": "function"
    },
    {
      "inputs": [
        {
          "internalType": "string",
          "name": "_fullName",
          "type": "string"
        },
        {
          "internalType": "string",
          "name": "_avatar",
          "type": "string"
        },
        {
          "internalType": "string",
          "name": "_intention",
          "type": "string"
        }
      ],
      "name": "createPlayer",
      "outputs": [],
      "stateMutability": "nonpayable",
      "type": "function"
    },
    {
      "inputs": [
        {
          "internalType": "string",
          "name": "content",
          "type": "string"
        }
      ],
      "name": "createReport",
      "outputs": [],
      "stateMutability": "nonpayable",
      "type": "function"
    },
    {
      "inputs": [
        {
          "internalType": "uint256",
          "name": "commentId",
          "type": "uint256"
        }
      ],
      "name": "deleteComment",
      "outputs": [],
      "stateMutability": "nonpayable",
      "type": "function"
    },
    {
      "inputs": [
        {
          "internalType": "uint256",
          "name": "reportId",
          "type": "uint256"
        }
      ],
      "name": "deleteReport",
      "outputs": [],
      "stateMutability": "nonpayable",
      "type": "function"
    },
    {
      "inputs": [
        {
          "internalType": "uint256",
          "name": "reportId",
          "type": "uint256"
        }
      ],
      "name": "getAllCommentsForReport",
      "outputs": [
        {
          "components": [
            {
              "internalType": "uint256",
              "name": "commentId",
              "type": "uint256"
            },
            {
              "internalType": "uint256",
              "name": "reportId",
              "type": "uint256"
            },
            {
              "internalType": "address",
              "name": "commenter",
              "type": "address"
            },
            {
              "internalType": "string",
              "name": "content",
              "type": "string"
            },
            {
              "internalType": "uint256",
              "name": "timestamp",
              "type": "uint256"
            }
          ],
          "internalType": "struct LeelaGame.Comment[]",
          "name": "",
          "type": "tuple[]"
        }
      ],
      "stateMutability": "view",
      "type": "function"
    },
    {
      "inputs": [],
      "name": "getAllReports",
      "outputs": [
        {
          "components": [
            {
              "internalType": "uint256",
              "name": "reportId",
              "type": "uint256"
            },
            {
              "internalType": "address",
              "name": "reporter",
              "type": "address"
            },
            {
              "internalType": "string",
              "name": "content",
              "type": "string"
            },
            {
              "internalType": "uint256",
              "name": "plan",
              "type": "uint256"
            },
            {
              "internalType": "uint256",
              "name": "timestamp",
              "type": "uint256"
            },
            {
              "internalType": "uint256[]",
              "name": "commentIds",
              "type": "uint256[]"
            }
          ],
          "internalType": "struct LeelaGame.Report[]",
          "name": "",
          "type": "tuple[]"
        }
      ],
      "stateMutability": "view",
      "type": "function"
    },
    {
      "inputs": [
        {
          "internalType": "address",
          "name": "player",
          "type": "address"
        }
      ],
      "name": "getPlanHistory",
      "outputs": [
        {
          "internalType": "uint256[]",
          "name": "",
          "type": "uint256[]"
        }
      ],
      "stateMutability": "view",
      "type": "function"
    },
    {
      "inputs": [
        {
          "internalType": "uint256",
          "name": "reportId",
          "type": "uint256"
        }
      ],
      "name": "getReport",
      "outputs": [
        {
          "components": [
            {
              "internalType": "uint256",
              "name": "reportId",
              "type": "uint256"
            },
            {
              "internalType": "address",
              "name": "reporter",
              "type": "address"
            },
            {
              "internalType": "string",
              "name": "content",
              "type": "string"
            },
            {
              "internalType": "uint256",
              "name": "plan",
              "type": "uint256"
            },
            {
              "internalType": "uint256",
              "name": "timestamp",
              "type": "uint256"
            },
            {
              "internalType": "uint256[]",
              "name": "commentIds",
              "type": "uint256[]"
            }
          ],
          "internalType": "struct LeelaGame.Report",
          "name": "",
          "type": "tuple"
        }
      ],
      "stateMutability": "view",
      "type": "function"
    },
    {
      "inputs": [
        {
          "internalType": "address",
          "name": "player",
          "type": "address"
        }
      ],
      "name": "getRollHistory",
      "outputs": [
        {
          "internalType": "uint8[]",
          "name": "",
          "type": "uint8[]"
        }
      ],
      "stateMutability": "view",
      "type": "function"
    },
    {
      "inputs": [
        {
          "internalType": "address",
          "name": "",
          "type": "address"
        },
        {
          "internalType": "uint256",
          "name": "",
          "type": "uint256"
        }
      ],
      "name": "playerPlans",
      "outputs": [
        {
          "internalType": "uint256",
          "name": "",
          "type": "uint256"
        }
      ],
      "stateMutability": "view",
      "type": "function"
    },
    {
      "inputs": [
        {
          "internalType": "address",
          "name": "",
          "type": "address"
        }
      ],
      "name": "playerReportCreated",
      "outputs": [
        {
          "internalType": "bool",
          "name": "",
          "type": "bool"
        }
      ],
      "stateMutability": "view",
      "type": "function"
    },
    {
      "inputs": [
        {
          "internalType": "address",
          "name": "",
          "type": "address"
        },
        {
          "internalType": "uint256",
          "name": "",
          "type": "uint256"
        }
      ],
      "name": "playerRolls",
      "outputs": [
        {
          "internalType": "uint8",
          "name": "",
          "type": "uint8"
        }
      ],
      "stateMutability": "view",
      "type": "function"
    },
    {
      "inputs": [
        {
          "internalType": "address",
          "name": "",
          "type": "address"
        }
      ],
      "name": "players",
      "outputs": [
        {
          "internalType": "string",
          "name": "fullName",
          "type": "string"
        },
        {
          "internalType": "string",
          "name": "avatar",
          "type": "string"
        },
        {
          "internalType": "string",
          "name": "intention",
          "type": "string"
        },
        {
          "internalType": "uint256",
          "name": "plan",
          "type": "uint256"
        },
        {
          "internalType": "uint256",
          "name": "previousPlan",
          "type": "uint256"
        },
        {
          "internalType": "bool",
          "name": "isStart",
          "type": "bool"
        },
        {
          "internalType": "bool",
          "name": "isFinished",
          "type": "bool"
        },
        {
          "internalType": "uint8",
          "name": "consecutiveSixes",
          "type": "uint8"
        },
        {
          "internalType": "uint256",
          "name": "positionBeforeThreeSixes",
          "type": "uint256"
        }
      ],
      "stateMutability": "view",
      "type": "function"
    },
    {
      "inputs": [
        {
          "internalType": "uint256",
          "name": "",
          "type": "uint256"
        }
      ],
      "name": "reports",
      "outputs": [
        {
          "internalType": "uint256",
          "name": "reportId",
          "type": "uint256"
        },
        {
          "internalType": "address",
          "name": "reporter",
          "type": "address"
        },
        {
          "internalType": "string",
          "name": "content",
          "type": "string"
        },
        {
          "internalType": "uint256",
          "name": "plan",
          "type": "uint256"
        },
        {
          "internalType": "uint256",
          "name": "timestamp",
          "type": "uint256"
        }
      ],
      "stateMutability": "view",
      "type": "function"
    },
    {
      "inputs": [
        {
          "internalType": "uint8",
          "name": "rollResult",
          "type": "uint8"
        }
      ],
      "name": "rollDice",
      "outputs": [],
      "stateMutability": "nonpayable",
      "type": "function"
    },
    {
      "inputs": [
        {
          "internalType": "uint256",
          "name": "commentId",
          "type": "uint256"
        },
        {
          "internalType": "string",
          "name": "newContent",
          "type": "string"
        }
      ],
      "name": "updateCommentContent",
      "outputs": [],
      "stateMutability": "nonpayable",
      "type": "function"
    },
    {
      "inputs": [
        {
          "internalType": "uint256",
          "name": "reportId",
          "type": "uint256"
        },
        {
          "internalType": "string",
          "name": "newContent",
          "type": "string"
        }
      ],
      "name": "updateReportContent",
      "outputs": [],
      "stateMutability": "nonpayable",
      "type": "function"
    }
  ],
  "bytecode": "0x60806040523480156200001157600080fd5b506200001c620000f7565b6044606082018190526080820152336000908152600660209081526040909120825180518493620000529284929101906200014a565b5060208281015180516200006d92600185019201906200014a565b50604082015180516200008b9160028401916020909101906200014a565b50606082015160038201556080820151600482015560a082015160058201805460c085015160e086015160ff199092169315159390931761ff00191661010093151584021762ff000019166201000060ff9092169190910217905590910151600690910155506200022d565b6040518061012001604052806060815260200160608152602001606081526020016000815260200160008152602001600015158152602001600015158152602001600060ff168152602001600081525090565b8280546200015890620001f0565b90600052602060002090601f0160209004810192826200017c5760008555620001c7565b82601f106200019757805160ff1916838001178555620001c7565b82800160010185558215620001c7579182015b82811115620001c7578251825591602001919060010190620001aa565b50620001d5929150620001d9565b5090565b5b80821115620001d55760008155600101620001da565b6002810460018216806200020557607f821691505b602082108114156200022757634e487b7160e01b600052602260045260246000fd5b50919050565b612801806200023d6000396000f3fe608060405234801561001057600080fd5b506004361061012c5760003560e01c8063aa7e5683116100ad578063de61022811610071578063de610228146102d7578063e1ce7a10146102ea578063e2eb41ff146102fd578063e5f7bb8514610325578063f3d3ddfa146103455761012c565b8063aa7e568314610240578063ade94a7614610253578063b2ccbe4514610273578063c2f8462714610293578063c942adf7146102b35761012c565b80635f2defcd116100f45780635f2defcd146101b55780637d0b1026146101d55780638ebb4c15146101e8578063960630491461020c5780639756a0551461021f5761012c565b80631e2160d1146101315780631f290f8f1461014657806333efe6061461015957806337e82920146101825780634e7f9b1914610195575b600080fd5b61014461013f366004611e2b565b61035a565b005b610144610154366004611e43565b610461565b61016c610167366004611e2b565b610502565b6040516101799190611fb7565b60405180910390f35b610144610190366004611d6c565b6106f8565b6101a86101a3366004611e2b565b610881565b6040516101799190612642565b6101c86101c3366004611d43565b6109f6565b6040516101799190612655565b6101446101e3366004611e2b565b610a27565b6101fb6101f6366004611e2b565b610bef565b60405161017995949392919061269c565b61014461021a366004611e88565b610cb2565b61023261022d366004611d22565b610e4f565b60405161017992919061211c565b61014461024e366004611e43565b610e7a565b610266610261366004611d43565b610fad565b60405161017991906126db565b610286610281366004611d22565b610ff0565b60405161017991906120b7565b6102a66102a1366004611d22565b61105c565b6040516101799190612111565b6102c66102c1366004611e2b565b611071565b60405161017995949392919061265e565b6101446102e5366004611e43565b611132565b6101446102f8366004611da7565b6111d4565b61031061030b366004611d22565b611323565b60405161017999989796959493929190612171565b610338610333366004611d22565b61150c565b60405161017991906120ca565b61034d611594565b6040516101799190612057565b600254811115801561036c5750600081115b6103915760405162461bcd60e51b8152600401610388906124cc565b60405180910390fd5b600081815260046020526040902060018101546001600160a01b031633146103cb5760405162461bcd60e51b81526004016103889061239f565b60408051808201909152601d8082527f54686973207265706f727420686173206265656e2064656c657465642e0000006020909201918252610411916002840191611aae565b50336001600160a01b0316827f091a93d0df177529f6163a351d8419864f2ab8cf3a9818acc6031be0853be2cf836003015442600260405161045593929190612549565b60405180910390a35050565b600082815260056020526040902060028101546001600160a01b0316331461049b5760405162461bcd60e51b815260040161038890612482565b81516104b09060038301906020850190611aae565b50336001600160a01b03168160010154847f5bfb3526b4ea79e3e890b4d2f6cb6dcb174473d6410442026e822947555c3bd0854260016040516104f5939291906121e5565b60405180910390a4505050565b60008181526004602052604081206005810180546060939067ffffffffffffffff81111561054057634e487b7160e01b600052604160045260246000fd5b60405190808252806020026020018201604052801561057957816020015b610566611b32565b81526020019060019003908161055e5790505b50905060005b82548110156106ed57600560008483815481106105ac57634e487b7160e01b600052603260045260246000fd5b906000526020600020015481526020019081526020016000206040518060a001604052908160008201548152602001600182015481526020016002820160009054906101000a90046001600160a01b03166001600160a01b03166001600160a01b0316815260200160038201805461062390612749565b80601f016020809104026020016040519081016040528092919081815260200182805461064f90612749565b801561069c5780601f106106715761010080835404028352916020019161069c565b820191906000526020600020905b81548152906001019060200180831161067f57829003601f168201915b505050505081526020016004820154815250508282815181106106cf57634e487b7160e01b600052603260045260246000fd5b602002602001018190525080806106e590612784565b91505061057f565b50925050505b919050565b336000908152600660205260409020600381015460059091015460ff166107315760405162461bcd60e51b815260040161038890612431565b6002805490600061074183612784565b90915550506040805160c08101825260025481523360208201529081018390526060810182905242608082015260a08101600060405190808252806020026020018201604052801561079d578160200160208202803683370190505b5090526002805460009081526004602090815260409182902084518155848201516001820180546001600160a01b0319166001600160a01b0390921691909117905591840151805192936107f993908501929190910190611aae565b50606082015160038201556080820151600482015560a08201518051610829916005840191602090910190611b6a565b505033600081815260096020526040808220805460ff191660011790556002549051929350917f091a93d0df177529f6163a351d8419864f2ab8cf3a9818acc6031be0853be2cf91610455918791879142919061220d565b610889611ba4565b600254821115801561089b5750600082115b6108b75760405162461bcd60e51b8152600401610388906124cc565b600082815260046020908152604091829020825160c0810184528154815260018201546001600160a01b031692810192909252600281018054929391929184019161090190612749565b80601f016020809104026020016040519081016040528092919081815260200182805461092d90612749565b801561097a5780601f1061094f5761010080835404028352916020019161097a565b820191906000526020600020905b81548152906001019060200180831161095d57829003601f168201915b505050505081526020016003820154815260200160048201548152602001600582018054806020026020016040519081016040528092919081815260200182805480156109e657602002820191906000526020600020905b8154815260200190600101908083116109d2575b5050505050815250509050919050565b60086020528160005260406000208181548110610a1257600080fd5b90600052602060002001600091509150505481565b600081815260056020526040902060028101546001600160a01b03163314610a615760405162461bcd60e51b8152600401610388906123e7565b6000828152600560205260408120818155600181018290556002810180546001600160a01b031916905590610a996003830182611be3565b50600060049182018190556001830154815260209190915260408120600501905b8154811015610ba75783828281548110610ae457634e487b7160e01b600052603260045260246000fd5b90600052602060002001541415610b955781548290610b0590600190612732565b81548110610b2357634e487b7160e01b600052603260045260246000fd5b9060005260206000200154828281548110610b4e57634e487b7160e01b600052603260045260246000fd5b906000526020600020018190555081805480610b7a57634e487b7160e01b600052603160045260246000fd5b60019003818190600052602060002001600090559055610ba7565b80610b9f81612784565b915050610aba565b50336001600160a01b03168260010154847f5bfb3526b4ea79e3e890b4d2f6cb6dcb174473d6410442026e822947555c3bd0856003014260026040516104f59392919061223b565b6005602052600090815260409020805460018201546002830154600384018054939492936001600160a01b039092169291610c2990612749565b80601f0160208091040260200160405190810160405280929190818152602001828054610c5590612749565b8015610ca25780601f10610c7757610100808354040283529160200191610ca2565b820191906000526020600020905b815481529060010190602001808311610c8557829003601f168201915b5050505050908060040154905085565b60005460ff16610cd45760405162461bcd60e51b8152600401610388906122f4565b60018160ff1610158015610cec5750600660ff821611155b610d085760405162461bcd60e51b815260040161038890612342565b336000908152600660209081526040808320600783529083208054600181018255908452928290209183049091018054601f9093166101000a60ff8181021990941685851691909102179055600581015490911615610d9d576002546000908152600460205260409020600101546001600160a01b03163314610d9d5760405162461bcd60e51b8152600401610388906124f8565b600581015460ff16158015610db557508160ff166006145b15610e345760066003820181905560058201805462010000600160ff19909216821762ff0000191617909155336000818152600860209081526040808320805495860181558352908220909301849055915160ff8616927fa80d0879cc93cb9b45f20dabe406fe65fc150bf0304985f2e8c37521bf6a7ef691a4610e4b565b600581015460ff1615610e4b57610e4b8233611791565b5050565b6001600160a01b031660009081526006602052604090206005015460ff808216926101009092041690565b600082815260046020526040902060018101546001600160a01b0316610eb25760405162461bcd60e51b81526004016103889061259b565b60038054906000610ec283612784565b90915550506040805160a081018252600380548083526020808401888152338587019081526060860189815242608088015260009485526005845296909320855181559051600182015591516002830180546001600160a01b0319166001600160a01b039092169190911790559351805193949193610f48938501929190910190611aae565b5060809190910151600490910155600380546005830180546001810182556000918252602082200191909155905460405133928692917f5bfb3526b4ea79e3e890b4d2f6cb6dcb174473d6410442026e822947555c3bd0916104f591889142916121e5565b60076020528160005260406000208181548110610fc957600080fd5b9060005260206000209060209182820401919006915091509054906101000a900460ff1681565b6001600160a01b03811660009081526008602090815260409182902080548351818402810184019094528084526060939283018282801561105057602002820191906000526020600020905b81548152602001906001019080831161103c575b50505050509050919050565b60096020526000908152604090205460ff1681565b60046020526000908152604090208054600182015460028301805492936001600160a01b03909216926110a390612749565b80601f01602080910402602001604051908101604052809291908181526020018280546110cf90612749565b801561111c5780601f106110f15761010080835404028352916020019161111c565b820191906000526020600020905b8154815290600101906020018083116110ff57829003601f168201915b5050505050908060030154908060040154905085565b600082815260046020526040902060018101546001600160a01b0316331461116c5760405162461bcd60e51b8152600401610388906125cb565b81516111819060028301906020850190611aae565b50336001600160a01b0316837f091a93d0df177529f6163a351d8419864f2ab8cf3a9818acc6031be0853be2cf8484600301544260016040516111c7949392919061220d565b60405180910390a3505050565b60005460ff16156111f75760405162461bcd60e51b815260040161038890612613565b6111ff611c22565b838152602080820184905260408083018490526000606084018190523381526006835220825180518493611237928492910190611aae565b5060208281015180516112509260018501920190611aae565b506040820151805161126c916002840191602090910190611aae565b50606082015160038201556080820151600482015560a082015160058201805460c085015160e086015160ff16620100000262ff00001991151561010090810261ff001996151560ff19958616179690961695909517919091161790915592015160069091015560008054909116600117905560405133907f1f04cf09dc09e59995d246fb7ccff8ee6f3c250f3aac6a71100f7a7ee2f760a6906113159087908790879061212e565b60405180910390a250505050565b60066020526000908152604090208054819061133e90612749565b80601f016020809104026020016040519081016040528092919081815260200182805461136a90612749565b80156113b75780601f1061138c576101008083540402835291602001916113b7565b820191906000526020600020905b81548152906001019060200180831161139a57829003601f168201915b5050505050908060010180546113cc90612749565b80601f01602080910402602001604051908101604052809291908181526020018280546113f890612749565b80156114455780601f1061141a57610100808354040283529160200191611445565b820191906000526020600020905b81548152906001019060200180831161142857829003601f168201915b50505050509080600201805461145a90612749565b80601f016020809104026020016040519081016040528092919081815260200182805461148690612749565b80156114d35780601f106114a8576101008083540402835291602001916114d3565b820191906000526020600020905b8154815290600101906020018083116114b657829003601f168201915b5050506003840154600485015460058601546006909601549495919490935060ff80831693506101008304811692620100009004169089565b6001600160a01b03811660009081526007602090815260409182902080548351818402810184019094528084526060939283018282801561105057602002820191906000526020600020906000905b825461010083900a900460ff1681526020600192830181810494850194909303909202910180841161155b575094979650505050505050565b6060600060025467ffffffffffffffff8111156115c157634e487b7160e01b600052604160045260246000fd5b6040519080825280602002602001820160405280156115fa57816020015b6115e7611ba4565b8152602001906001900390816115df5790505b50905060015b600254811161178b57600081815260046020908152604091829020825160c0810184528154815260018201546001600160a01b031692810192909252600281018054929391929184019161165390612749565b80601f016020809104026020016040519081016040528092919081815260200182805461167f90612749565b80156116cc5780601f106116a1576101008083540402835291602001916116cc565b820191906000526020600020905b8154815290600101906020018083116116af57829003601f168201915b5050505050815260200160038201548152602001600482015481526020016005820180548060200260200160405190810160405280929190818152602001828054801561173857602002820191906000526020600020905b815481526020019060010190808311611724575b5050505050815250508260018361174f9190612732565b8151811061176d57634e487b7160e01b600052603260045260246000fd5b6020026020010181905250808061178390612784565b915050611600565b50905090565b6001600160a01b03811660009081526006602081815260408084203385526009909252909220805460ff1916905560ff8416141561184a5760038101546006820155600581018054600191906002906117f490849062010000900460ff1661270d565b92506101000a81548160ff021916908360ff1602179055508060050160029054906101000a900460ff1660ff16600314156118455760068101546003820155600501805462ff000019169055610e4b565b611859565b60058101805462ff0000191690555b6118638383611868565b505050565b6001600160a01b038116600090815260066020526040812060038101546004820181905590919061189d9060ff8616906126f5565b905060488111156118af575060038101545b80600c14156118c057506008611a13565b80601014156118d157506004611a13565b80601814156118e257506007611a13565b80601d14156118f357506006611a13565b80602c141561190457506009611a13565b806034141561191557506023611a13565b806037141561192657506003611a13565b80603d14156119375750600d611a13565b80603f141561194857506002611a13565b806048141561195957506033611a13565b80600a141561196a57506017611a13565b806011141561197b57506045611a13565b806014141561198c57506020611a13565b806016141561199d5750603c611a13565b80601b14156119ae57506029611a13565b80601c14156119bf57506032611a13565b80602514156119d057506042611a13565b80602d14156119e157506043611a13565b80602e14156119f25750603e611a13565b8060361415611a0357506044611a13565b6048811115611a13575060038101545b600382018190556001600160a01b0383166000908152600860209081526040822080546001810182559083529120018190556044811415611a6d576005820180546004840183905560ff1961ff0019909116610100171690555b808460ff16846001600160a01b03167fa80d0879cc93cb9b45f20dabe406fe65fc150bf0304985f2e8c37521bf6a7ef660405160405180910390a450505050565b828054611aba90612749565b90600052602060002090601f016020900481019282611adc5760008555611b22565b82601f10611af557805160ff1916838001178555611b22565b82800160010185558215611b22579182015b82811115611b22578251825591602001919060010190611b07565b50611b2e929150611c75565b5090565b6040518060a00160405280600081526020016000815260200160006001600160a01b0316815260200160608152602001600081525090565b828054828255906000526020600020908101928215611b225791602002820182811115611b22578251825591602001919060010190611b07565b6040518060c001604052806000815260200160006001600160a01b03168152602001606081526020016000815260200160008152602001606081525090565b508054611bef90612749565b6000825580601f10611c015750611c1f565b601f016020900490600052602060002090810190611c1f9190611c75565b50565b6040518061012001604052806060815260200160608152602001606081526020016000815260200160008152602001600015158152602001600015158152602001600060ff168152602001600081525090565b5b80821115611b2e5760008155600101611c76565b80356001600160a01b03811681146106f357600080fd5b600082601f830112611cb1578081fd5b813567ffffffffffffffff80821115611ccc57611ccc6127b5565b604051601f8301601f191681016020018281118282101715611cf057611cf06127b5565b604052828152848301602001861015611d07578384fd5b82602086016020830137918201602001929092529392505050565b600060208284031215611d33578081fd5b611d3c82611c8a565b9392505050565b60008060408385031215611d55578081fd5b611d5e83611c8a565b946020939093013593505050565b600060208284031215611d7d578081fd5b813567ffffffffffffffff811115611d93578182fd5b611d9f84828501611ca1565b949350505050565b600080600060608486031215611dbb578081fd5b833567ffffffffffffffff80821115611dd2578283fd5b611dde87838801611ca1565b94506020860135915080821115611df3578283fd5b611dff87838801611ca1565b93506040860135915080821115611e14578283fd5b50611e2186828701611ca1565b9150509250925092565b600060208284031215611e3c578081fd5b5035919050565b60008060408385031215611e55578182fd5b82359150602083013567ffffffffffffffff811115611e72578182fd5b611e7e85828601611ca1565b9150509250929050565b600060208284031215611e99578081fd5b813560ff81168114611d3c578182fd5b6000815180845260208085019450808401835b83811015611ed857815187529582019590820190600101611ebc565b509495945050505050565b60038110611f0157634e487b7160e01b600052602160045260246000fd5b9052565b60008151808452815b81811015611f2a57602081850181015186830182015201611f0e565b81811115611f3b5782602083870101525b50601f01601f19169290920160200192915050565b60008151835260018060a01b036020830151166020840152604082015160c06040850152611f8160c0850182611f05565b9050606083015160608501526080830151608085015260a083015184820360a0860152611fae8282611ea9565b95945050505050565b60208082528251828201819052600091906040908185019080840286018301878501865b8381101561204957888303603f190185528151805184528781015188850152868101516001600160a01b03168785015260608082015160a0828701819052919061202783880182611f05565b6080948501519790940196909652505094870194925090860190600101611fdb565b509098975050505050505050565b6000602080830181845280855180835260408601915060408482028701019250838701855b828110156120aa57603f19888603018452612098858351611f50565b9450928501929085019060010161207c565b5092979650505050505050565b600060208252611d3c6020830184611ea9565b6020808252825182820181905260009190848201906040850190845b8181101561210557835160ff16835292840192918401916001016120e6565b50909695505050505050565b901515815260200190565b91151582521515602082015260400190565b6000606082526121416060830186611f05565b82810360208401526121538186611f05565b905082810360408401526121678185611f05565b9695505050505050565b60006101208083526121858184018d611f05565b90508281036020840152612199818c611f05565b905082810360408401526121ad818b611f05565b60608401999099525050608081019590955292151560a085015290151560c084015260ff1660e0830152610100909101529392505050565b6000606082526121f86060830186611f05565b9050836020830152611d9f6040830184611ee3565b6000608082526122206080830187611f05565b9050846020830152836040830152611fae6060830184611ee3565b60608152835460009081906002810460018083168061225b57607f831692505b602080841082141561227b57634e487b7160e01b87526022600452602487fd5b6122888460608a01612655565b82801561229c57600181146122ad576122d7565b60ff198716825282820197506122d7565b6122b68d6126e9565b895b878110156122d1578154848201529086019084016122b8565b83019850505b50508596508981890152505050505050611d9f6040830184611ee3565b6020808252602e908201527f506c61796572206d7573742062652063726561746564206265666f726520726f60408201526d6c6c696e6720746865206469636560901b606082015260800190565b6020808252603e908201527f496e76616c696420726f6c6c20726573756c743a20726f6c6c526573756c742060408201527f3e3d203120262620726f6c6c526573756c74203c3d204d41585f524f4c4c0000606082015260800190565b60208082526028908201527f4f6e6c7920746865207265706f727465722063616e2064656c65746520746865604082015267103932b837b93a1760c11b606082015260800190565b6020808252602a908201527f4f6e6c792074686520636f6d6d656e7465722063616e2064656c657465207468604082015269329031b7b6b6b2b73a1760b11b606082015260800190565b60208082526031908201527f596f75206d757374207374617274207468652067616d65206265666f726520636040820152703932b0ba34b7339030903932b837b93a1760791b606082015260800190565b6020808252602a908201527f4f6e6c792074686520636f6d6d656e7465722063616e20757064617465207468604082015269329031b7b6b6b2b73a1760b11b606082015260800190565b60208082526012908201527124b73b30b634b2103932b837b93a1024a21760711b604082015260600190565b60208082526031908201527f596f75206d757374206372656174652061207265706f7274206265666f7265206040820152703937b63634b733903a3432903234b1b29760791b606082015260800190565b600060808252601d60808301527f54686973207265706f727420686173206265656e2064656c657465642e00000060a083015260c082019050846020830152836040830152611d9f6060830184611ee3565b6020808252601690820152752932b837b93a103237b2b9903737ba1032bc34b9ba1760511b604082015260600190565b60208082526028908201527f4f6e6c7920746865207265706f727465722063616e2075706461746520746865604082015267103932b837b93a1760c11b606082015260800190565b602080825260159082015274506c6179657220616c72656164792065786973747360581b604082015260600190565b600060208252611d3c6020830184611f50565b90815260200190565b8581526001600160a01b038516602082015260a06040820181905260009061268890830186611f05565b606083019490945250608001529392505050565b600086825285602083015260018060a01b038516604083015260a060608301526126c960a0830185611f05565b90508260808301529695505050505050565b60ff91909116815260200190565b60009081526020902090565b600082198211156127085761270861279f565b500190565b600060ff821660ff84168060ff0382111561272a5761272a61279f565b019392505050565b6000828210156127445761274461279f565b500390565b60028104600182168061275d57607f821691505b6020821081141561277e57634e487b7160e01b600052602260045260246000fd5b50919050565b60006000198214156127985761279861279f565b5060010190565b634e487b7160e01b600052601160045260246000fd5b634e487b7160e01b600052604160045260246000fdfea2646970667358221220ae39266a8ea88549a4f4bf92da66ae31315f45a14ee965969cb19694ffc388db64736f6c63430008000033",
  "linkReferences": {},
  "deployedLinkReferences": {}
}